:020000040000FA
:10000000D0090020150100002F010000310100007F
:1000100000000000000000000000000000000000E0
:10002000000000000000000000000000330100009C
:100030000000000000000000350100003701000052
:100040003901000039010000A9020000F50100009B
:1000500039010000000000003901000039010000F2
:1000600039010000390100003901000039010000A8
:100070003901000039010000390100003901000098
:100080003901000039010000390100003901000088
:100090003901000039010000390100003901000078
:1000A00039010000390100000000000000000000DC
:1000B0000000000000000000000000000000000040
:1000C0000348854600F06AF800480047C908000068
:1000D000D0090020401E00BF00BF00BF00BF00BF0E
:1000E00000BF00BF00BF00BF00BF00BF00BFF1D115
:1000F00070470000401E00BF00BF00BF00BF00BF30
:1001000000BF00BF00BF00BF00BF00BF00BFF1D1F4
:10011000704700000321094802680A43026008484A
:1001200002680A4302600748804707480047FEE725
:10013000FEE7FEE7FEE7FEE7FEE7000024050040DD
:100140005405004009020000C100000003460B43B3
:100150009B0703D009E008C9121F08C0042AFAD27D
:1001600003E00B780370401C491C521EF9D2704703
:1001700030B50B46014600202022012409E00D463F
:10018000D5409D4205D31D469540491B25469540C7
:1001900040191546521E002DF1DC30BD064C0125DC
:1001A000064E05E0E36807CC2B430C3C984710341F
:1001B000B442F7D3FFF788FFE414000004150000F1
:1001C0001CB575206946087101200346009001AAFC
:1001D0006821064800F06CFC002801D000F03EFACF
:1001E000034841780029FCD01CBD000064140000C5
:1001F0000000002010B50249024800F0EBFA10BDE3
:100200008C0100200030004010B500F039FB0028C0
:1002100005D01F491D484860C8131E4988611E4803
:10022000018CC9B201290BD1828C120708D1028D31
:100230001206120F042A03D1828D1206120F0AD061
:10024000012921D1818C09071ED1018D0906090FD1
:100250000A2904D007E0114A01219160F5E7828D57
:100260001206120F05D00D290ED1808D0006000F49
:100270000AD10B480168012904D00A4901600168CC
:100280000129FCD1C021416110BD0000DFFF07C082
:1002900000050040006C0040C00F00F00006004068
:1002A00000EC06407593000010B501F047F810BD52
:1002B0000FB410B503A9044B044A029800F018F8D3
:1002C00010BC08BC04B01847C70700001400002089
:1002D00002E008C8121F08C1002AFAD1704770470F
:1002E000002001E001C1121F002AFBD1704700006D
:1002F000FFB58FB00546002606E025280AD0129AE1
:10030000119990476D1C761C28780028F5D130464D
:1003100013B0F0BD002402940121B54A009400E01E
:1003200004436D1C2B780846203B98401042F7D1BF
:1003300028782A280ED00222287801463039092947
:1003400016D802990A2359433039401814436D1CBA
:100350000290F1E7109802C802911090002904DA87
:1003600001204003044348420290022004436D1CD4
:1003700028782E2817D10420044368786D1C2A2879
:100380000CD110986D1C02C8009110900BE00099E0
:100390000A225143303940186D1C009028780146DC
:1003A00030390929F3D928786C2810D006DC4C287C
:1003B0001AD068280ED06A2817D104E0742813D008
:1003C0007A2812D110E00120400504430CE00121FD
:1003D000090501E0032109050C436978814203D135
:1003E0000120000524186D1C6D1C2878692874D024
:1003F00006DC00288BD0632827D0642806D16CE067
:100400006E2808D073282CD0752878D0129A1199AC
:100410009047761C5FE06002400F022809D0032855
:100420000DD00428109801680DD00E60001D1090AA
:1004300051E01098F21701680E604A60F6E71098D4
:1004400001680E80F2E70E70F0E710986A460178B6
:100450001173001D10900020507303A8019001201B
:1004600005E0109802C8019110900020C043610778
:100470000CD5002700E07F1C00998F420FDA8742DD
:10048000F9DB0199C95D0029F5D108E0002700E0FA
:100490007F1C8742FCDB0199C95D0029F8D10298D5
:1004A0002146C01B0290129B119A00F0B3F88019EC
:1004B000C61907E0019801990078491C0191129A28
:1004C000119990477F1EF5D22146129B119A0298EE
:1004D00000F090F886196D1C16E70A20019010991B
:1004E00001C910916102490F032900D100B204290A
:1004F00000D140B2002803DA40422D2103E00DE094
:10050000210504D52B216A461173012103E0E1077F
:1005100011D02021F7E70CAF0C9114E00A200190D4
:10052000109901C910916102490F032900D180B2CD
:10053000042900D1C0B20021EDE70199FFF718FEB0
:1005400030317F1E39700028F7D104A8C01B20303D
:100550000190600704D5012000048443009801E065
:10056000012000900199884201DD401A00E000203E
:10057000411800900C9809180298401A0290E00364
:1005800006D42146129B119A029800F043F886196E
:1005900000200D9008E003A9085C129A1199904779
:1005A0000D98401C761C0D900C998842F3DBE003FB
:1005B0000CD52146129B119A029800F02BF886194F
:1005C00004E0129A302011999047761C0099481E39
:1005D00000900029F5DC05E03878129A7F1C11990B
:1005E0009047761C0199481E01900029F4DC6BE7C6
:1005F00009280100F8B5044600251E461746880460
:1006000004D405E039462020B0476D1C641EF9D59E
:100610002846F8BDFFB50446002581B01E46C80334
:1006200001D5302700E02027880404D505E03846AE
:100630000399B0476D1C641EF9D5284605B0F0BD7E
:10064000BFF34F8F04490348C860BFF34F8F00BF0B
:10065000FDE700000400FA0500ED00E00EB5002102
:10066000029000916A4601910148FFF7E9FF0EBD33
:100670000140000010B58268C368934203D000F0C7
:100680008FF8002010BD052010BD002906D0002ADB
:1006900002D0531E134203D0092070470E2070472A
:1006A0000160838000218160C1600846704710B5F9
:1006B0008268C3689A1A83889A4203D800F07AF84D
:1006C000002010BD042010BD70B50446224888B03B
:1006D0001E460D0042601CD0A888296882B21F48BF
:1006E000FFF7D3FF002815D1A889A96882B21B485B
:1006F0001030FFF7CAFF00280CD1202218496846A5
:10070000FFF724FDA06806902079002804D001217D
:1007100003E0072008B070BD002168460175067728
:100720006079002800D00E2069464875E078029074
:10073000A07803902078019060780090094968467D
:1007400000F0DCF90028E5D100F062FA024801214E
:10075000401C00F037FADDE70C0000206C0100209F
:10076000881400007912000010B501460A48FFF70E
:100770009EFF04000ED100F0F1FA00280AD10749CB
:100780000548FFF777FF002804D10121034800F056
:1007900099FA0446204610BD7C0100200C00002080
:1007A000826883881A4003689A5C0A708168491CD1
:1007B00081607047C26883881A4003689954C16891
:1007C000491CC160704710B50446C0B2FFF7CCFFAA
:1007D000204610BD7FB50C460D462035064669788B
:1007E00028780191009022462632D11E3046E369D6
:1007F00000F00DFC002819D1E87800281DD1207BDD
:10080000022801D0032818D12269E169914214D14C
:100810006269E261E37B2B70217E8906C90F6970F2
:10082000032804D03146204600F094FB7FBD0091A0
:100830003146204600F06EFC7FBD20460C3007C8D4
:1008400001AB07C3E878002100280ED00920C001C1
:100850003218506C5064820701D5012002E0400735
:1008600005D502206A46107001E0684601702971C2
:10087000207E4007E0D422686846616890477FBDCB
:100880001048018CC9B2012917D1818C090714D1F4
:10089000018D09060A0F03D1828D1206120F0ED0A8
:1008A000090F012903D1828D1206120F07D00329E7
:1008B00003D1808D0006000F01D000207047012079
:1008C00070470000C00F00F01B4A8AB007CA06AB91
:1008D00007C31A4802900125194804902802059080
:1008E00003950323174A02A906A8FFF7EDFE002887
:1008F00001D0FFF7B3FE14A0FFF7DAFC00F010FB05
:10090000FFF75EFC00260D4C68460671A41E6420AD
:1009100000F026F820BF20780028FBD006480123ED
:1009200001AA68210838009500F0C2F8002801D01B
:10093000FFF794FE2670EAE76C1400000200002026
:100940006C000020291300000A0D545749207365DC
:100950006E736F72206578616D706C650D0A0000B2
:1009600031B5054C04E0401E00902046FFF7B2FB75
:1009700000980028F7D138BDE70300008207D30EA6
:10098000FF229A408907090E10B5994000280BDA1A
:1009900003071B0F083B9C080C4BA400E318DC6901
:1009A00094430C43DC6107E08408094BA400E4187D
:1009B000236893430B432360C106C90E012088407E
:1009C000044908600449086010BD000000ED00E023
:1009D00000E400E080E200E000E100E0017928228C
:1009E0005143054A0068891805221302C0180260A5
:1009F00002202031887070478C010020F8B507462E
:100A00000C46007928211D4D41434D192E462036B4
:100A1000B178002901D00820F8BD002C02D1184976
:100A2000000144180CC50020286070713071214607
:100A30003846083D00F012FA206812498200124838
:100A4000121811606268920010180160052338685E
:100A50001B0206CCC0188160C26021684162286810
:100A6000083C002805D03868217B000B40B2FFF716
:100A700085FF0120B0700020F8BD00008C0100202F
:100A8000A81400000C060000000700503EB5074DFA
:100A90002C69AD69009402956C466170A370019257
:100AA0000022694600F016F83EBD0000A8140000C0
:100AB0003EB50025069C009502956D466970AB70A9
:100AC0000192002C01D0202200E00022294600F0F3
:100AD00001F83EBD70B50D46017928235943064BF8
:100AE000CC18910701D0062070BD134601682A4634
:100AF000204600F055FB70BD8C010020F3B52A4C58
:100B00000746E07E81B0002801D00820FEBD002FFE
:100B100000D1264F01263878314681402448816033
:100B2000386800F03EF90021786800F031F9214D75
:100B3000B8696862787D397D0843E86603CFE8606C
:100B40006961387B083F01280FD10021B86800F0A7
:100B50001FF9387B3146814015488160F86800F004
:100B600020F9F968B868A96028610298606039695D
:100B7000216000280ED0FF230F481D33397F00224B
:100B8000C250FF234533C2500D4A0C48506002202A
:100B9000FFF7F4FE042028600020E0752076A075A1
:100BA000E676A076FEBD0000B4010020C41400006B
:100BB0000005005000250040002000408000020099
:100BC00000230040F8B5104B81245E680022A40089
:100BD0000E4D002E00D0AC60DF7D002F0BD01A7EB2
:100BE000002A04D0002E00D06C601120F8BD1861DE
:100BF0000122197604E0D9750024D8605C761C7651
:100C000000F012F8F8BD0000B401002000230040FD
:100C100010B5044CA07E002803D100F011F901208A
:100C2000A07610BDB4010020F8B5234DA87E104376
:100C300001D100F005F96868204C002805D081201A
:100C40001F49800048600020F8BDFF20453000218A
:100C50002150FF212531204600F0BBF80546FF2139
:100C60000931204600F0B5F80746FF2145312046FE
:100C700000F0AFF80646394631432943E9D028460B
:100C8000304306D100F0B2F80B48C17D407E81426E
:100C9000DFD800210848002DC17501D00320F8BD20
:100CA000002E01D00F20F8BD817E0120002901D047
:100CB0002060C8E76060C6E7B40100200020004063
:100CC0000023004010B5034600F048F8002801D08A
:100CD000112010BD034A002091759360908200F0AE
:100CE00003F810BDB4010020F8B50026194FFF2508
:100CF0001D357E510120B86000F098FA164C6168ED
:100D0000002910D022E0FF2701372946114800F0C2
:100D100060F8002802D1A08AB842F6D1A08AB84271
:100D200001D000F083FAA08AA17D8842EBD3A18A8A
:100D3000C81FF9380CD0074F2946384600F049F84B
:100D40000028F9D00120F8600020A0753046F8BDD9
:100D50000F26F9E700200040B40100200248807D02
:100D6000002800D001207047B401002030B55200A7
:100D70000A439900039C0A432102049D0A43290463
:100D80000A43024980004018026030BD000700504D
:100D90001CB500220B46009211460192FFF7E6FFB8
:100DA0001CBD1CB5002100910B460122019111468A
:100DB000FFF7DCFF1CBD000001218140014881607C
:100DC00070470000000500504058002800D0012066
:100DD00070474058002800D00120704703221202BB
:100DE00080184068084000D00120704730B50A489C
:100DF000FF21C57D0022094C0931094B002D6250AD
:100E000007D09969437EC268D154417E491C41761E
:100E100030BD986930BD0000B401002000200040C2
:100E2000002500401FB501236A4613701072034865
:100E3000019106C8684690471FBD0000B40100201C
:100E4000FF220548253200218150FF2209328150BE
:100E5000012101607047000000200040F8B50C46F9
:100E60000968224D89002048491908606168890095
:100E7000491908602068FFF79FFF6068FFF79CFF33
:100E800019482168401C8900491908606168890077
:100E9000491908600420FFF72DF90025144F012699
:100EA00020793969C140C807C00F02D0002D19D080
:100EB0000FE0207831468140F9600420FFF71AF9ED
:100EC0002068FFF779FF0420FFF714F96D1C092D46
:100ED000E6DB20798640FE600420FFF70BF96068AE
:100EE000FFF76AFFF8BD00000C0600000007005085
:100EF0000005005010B5017800290CD100790028B8
:100F000009D10123044A68210448FFF7BFFD0028E6
:100F100001D0FFF7A3FB10BD050000206414000002
:100F20001FB50A4B6C460FCB0FC408480023084A74
:100F300069461438FFF762FD002801D0FFF78EFBE9
:100F400002481438FFF74AFD1FBD00007814000066
:100F5000F50E0000FFB50027FF2285B00C460532D4
:100F60001E46A750FF222532A750FF221D32A75050
:100F7000FF220932A75005462035CA1DFF32AF7146
:100F8000FA32EF70012B0FD001231360012222628D
:100F900022600268002A09D010498160806803211C
:100FA00009026118486015E00223EEE70146263188
:100FB0002330039102900020019000962046079B69
:100FC000039A029900F023F80028F4D1E878002869
:100FD00000D00327384609B0F0BD000086020000AB
:100FE00030B51C78039D944208D205221202095D97
:100FF0008018C1611878401C187006E00121002D8E
:1010000002D0C161002030BD4161012030BDFFB57B
:101010000F46097881B00446012904D0039802786C
:101020000A98824201D1012600E00026FF202530E7
:101030000025002907D02550FF201D302550FF2016
:101040000930255056E0FF2125312046FFF7BCFE30
:1010500000282CD1FF211D312046FFF7B5FE0028C6
:1010600014D0FF201D302550FF2125312046FFF7E9
:10107000ABFE00281BD10B9800902046039B0A9AD8
:101080000499FFF7ADFF002840D033E0FF2109317C
:101090002046FFF799FE00282CD0FF20093025506C
:1010A000FF2125312046FFF78FFE002806D0FF20C4
:1010B000253025500120606138701BE003990A98A3
:1010C0000F78049ABC46874214D205231B02E3180A
:1010D0009B696746D3550A78521CD2B20A70411EEA
:1010E0008A4203D102200102085101E0824201D06C
:1010F00001212162002E0BD0FF2605363146204605
:10110000FFF762FE002803D0A551002005B0F0BD16
:101110000120FBE7FFB5054687B00C460020FF2104
:10112000109F053105906050FF2125316050FF214F
:101130001D316050FF2109316050012149022E46C6
:1011400008512036B071F07001202062A060B31DFC
:101150000097029320460A9A0999FFF741FF2868F1
:10116000002807D00D48A860A8680321090261186B
:10117000486010E023350A980090019729462046E0
:10118000099B029AFFF743FF0028F4D1F07800286A
:1011900001D00320059005980BB0F0BD8602000039
:1011A000F8B5044600250320ED43000208188560C9
:1011B000254620352E79002E03D0A16841601120EC
:1011C000F8BD5807C017401C2871180701D5062024
:1011D000F8BDA361C1CA0C34C1C40C3A9078287020
:1011E00050680B266060F60150788E19B060107858
:1011F0000026183C01280ED0002801D1980601D500
:10120000012000E00020687000909378526820462A
:10121000FFF780FF05E06E70937852682046FFF775
:1012200099FE21680029D3D12E71F8BDFF2107480E
:101230001D31002242500648828A8168895C828A78
:10124000521C82820348C1617047000000200040A8
:10125000B4010020002500401FB500216A4611702E
:101260001072044882680192817506C868469047EA
:101270001FBD0000B40100207CB50178284D012974
:101280000AD002292FD000292CD129462548FFF762
:10129000F1F9002833D036E0406801782148103851
:1012A000FFF705FA1F4C103C002805D001216A46C3
:1012B00011700190684608E0A068E168081A0128EA
:1012C00005D1002069460870684669688847A068AB
:1012D000E168081AA188884204D811480121401CFD
:1012E000FFF770FC7CBD02216A461170C068019056
:1012F0000B480121401CFFF765FC68460CE001210A
:101300000748FFF7DFFC07488168C0688842E9D1D9
:101310000320694608706846696888477CBD0000FC
:101320000C0000207C01002010B50178012901D0BB
:10133000022902D14068FFF791F910BDF0B5454D83
:10134000012185B049022846FFF748FD0127002604
:10135000414C002824D0FF2125312846FFF739FDD4
:1013600000281DD0FF2025302E5081203B498000D1
:101370008860A07E002800D16F600221684601705D
:101380003749086808600390E17D68460172E068AB
:101390000190E675267606CC6846083C90472BE01F
:1013A00004212846FFF71AFD002825D0FF21093126
:1013B0002846FFF70EFD00281ED0FFF717FDE07D41
:1013C000617E884218D1207E002808D0627EE168C4
:1013D000E0752069E0602676667610460AE0A07E19
:1013E000002800D16F6081201C4980008860E6756C
:1013F000607EE168FFF716FDFF211D312846FFF7EB
:10140000E8FC00280DD0A18AA07D814202D2FFF71E
:101410000DFF06E0FF211D316E50002801D0FFF7BF
:101420001BFFFF2145312846FFF7D3FC00280ED0D3
:10143000FF2045302E50A07E002800D02F60E07D98
:10144000002804D0E675607EE168FFF7EBFC05B08C
:10145000F0BD000000200040B40100200023004047
:101460008024004000300040000000000B09080A02
:101470000000000000E0D7010F0000001000000095
:101480000000980101000000090000000B000000AE
:101490000A0000000800000000000000000000003A
:1014A00000E0D70103000000070000001E0000005C
:1014B000000098010300000001000000000000008F
:1014C00000000000090000000B0000000A000000FE
:1014D00008000000000000000000000000E0D7014C
:1014E0000300000004150000000000201C000000A4
:1014F000D0020000201500001C000020B4090000EC
:10150000E0020000010000000000000000000000F8
:101510000000000000000000000000000024F400B3
:04000005000000C136
:00000001FF
