:020000040001F9
:10B000000035002035B101004FB1010051B1010000
:10B010000000000000000000000000000000000030
:10B0200000000000000000000000000053B101001B
:10B03000000000000000000055B1010057B1010000
:10B0400059B1010059B101003DBA010031B9010007
:10B0500059B101000000000079B7010051B70100AB
:10B060000DBA010025BA010059B1010059B1010022
:10B0700059B1010059B1010059B1010059B10100A4
:10B0800059B1010011B9010059B1010059B10100D4
:10B0900045B9010059B101004DB9010059B1010094
:10B0A00059B1010059B1010000000000000000008A
:10B0B0000000000000000000000000000000000090
:10B0C0000348854600F006FB00480047F9E0010010
:10B0D00000350020401E00BF00BF00BF00BF00BF02
:10B0E00000BF00BF00BF00BF00BF00BF00BFF1D165
:10B0F00070470000401E00BF00BF00BF00BF00BF80
:10B1000000BF00BF00BF00BF00BF00BF00BFF1D144
:10B1100070470000401E00BF00BF00BF00BF00BF5F
:10B1200000BF00BF00BF00BF00BF00BF00BFF1D124
:10B13000704700000321094802680A43026008487A
:10B1400002680A4302600748804707480047FEE755
:10B15000FEE7FEE7FEE7FEE7FEE70000240500400D
:10B16000540500406DB90100C1B0010030B50B4677
:10B17000014600202022012409E00D46D5409D42D1
:10B1800005D31D469540491B254695404019154657
:10B19000521E002DF1DC30BD03460B439B0703D04C
:10B1A00009E008C9121F08C0042AFAD203E00B788C
:10B1B0000370401C491C521EF9D27047D2B201E004
:10B1C0000270401C491EFBD270470022F6E710B502
:10B1D00013460A4604461946FFF7F0FF204610BD05
:10B1E000F0B507460846584087B0C00F04904800A5
:10B1F0000E46590040084908BC1A884105D2384615
:10B2000031461E4617460B4602465800400810437A
:10B210004CD0300D039040055900400D490D05906C
:10B22000401A0290402872DA18030121000B090528
:10B230000843019004980092002805D001995242D9
:10B240000020884100920190029840210A1A019939
:10B25000009800F0ABF905460C466B4607CB00F0B2
:10B26000C6F9C0197141039A0E0D0023D717564035
:10B270001A467A40164344D0049A002A2DD0029AE6
:10B28000012A039A15DC1205C01A914101263605E0
:10B29000001C7141D20F059ED207009301920296C5
:10B2A0002A46234600F0C3F907B0F0BD38463146C0
:10B2B000FAE71605224A0F46B218C01AB741012113
:10B2C0000905001C4F4100187F41114618187941AB
:10B2D000E20F10436D19644113E0E2076D08154356
:10B2E0006408C2071443039A01261205C01A91414B
:10B2F0003605001C7141CE07400830434908C0188C
:10B3000051412A46234600F085F9CDE7FFE704982E
:10B3100001224000C117121A00238B4104983146C4
:10B32000C417381AA141EEE730B40124E4076340A2
:10B3300030BC55E730B40124E407614030BC4FE72E
:10B340000000E0FFF0B51FB488B00B990998002405
:10B3500048400999C00F490049080991C0070B9955
:10B360000090490049080B9109990898A64608439E
:10B370001CD00B990A98084318D009980124400062
:10B38000420D4800410D099824050003000B20439D
:10B3900009900B980003000B20430B9050181C4998
:10B3A0004018002201901446104605E00020014696
:10B3B0000DB0F0BD032801DA034600E003239C46EC
:10B3C000C11A0AAE0AE05F0008ADED5B4F00F75B03
:10B3D0007D430027AA187C41491C5B1E6145F2DDB4
:10B3E000410004AB5A522104120C0A43240C401CA5
:10B3F0000828DFDB019802900099704601910090C7
:10B40000059B049A0799069800F011F9D0E700000F
:10B410000DFCFFFFF0B50C465C4085B0E40FE4077F
:10B4200003944C00002664085900944649080246DB
:10B430000296224321D062460A431ED06200570D75
:10B440004A000E032303550D012402462C4924050E
:10B45000781B1B0B360B4018234326436146009094
:10B460001C46501AB44103D30098401C009002E0DF
:10B47000921800985B41002803DA0020014605B0CD
:10B48000F0BD0020012109050746864611E064460B
:10B490001D46141BB54106D36546521BB341744685
:10B4A00007430C43A646CD07400849082843921895
:10B4B0005B4105460D43EAD11046184313D0604660
:10B4C000194650407140084306D06046101AB341F7
:10B4D00006D20122002306E000220123DB0702E05E
:10B4E0000122D2435310009874460105381C614173
:10B4F000029C039D0019694100F08CF8BFE7000031
:10B50000FD0300000EB505490291002100910A4695
:10B510000B46019100F08BF803B000BD330400002E
:10B520004A0009030123090B1B051943094B10B5F8
:10B53000520D9A4201DA002010BD064B34339A4274
:10B5400003DC9A1A00F042F810BD034951188840F4
:10B5500010BD0000FF030000CDFBFFFF10B5002968
:10B5600004DB0124E40740428C412146002B04DB2C
:10B570001C460123DB075242A3418B4200D1824289
:10B5800010BD000010B5002904DB0124E40740428F
:10B590008C412146002B04DB1C460123DB07524271
:10B5A000A341994200D1904210BD000010B5202A5D
:10B5B00004DB0146203A9140002010BD9140202339
:10B5C0009C1A0346E3401943904010BD10B5202A51
:10B5D00004DB0846203AD040002110BD0B46D34082
:10B5E000D0402024A21A91400843194610BD10B53E
:10B5F000202A06DBCB170846203A1041C1170B431F
:10B6000006E00B461341D0402024A21A9140084383
:10B61000194610BD10B5002B08DA0024401C61410A
:10B6200092185B411A4301D14008400010BDF0B5AB
:10B630001FB482B005460C0003D0084600F002FAA1
:10B6400002E000F0FFF92030024600902146284633
:10B65000FFF7ACFF049B059A04460F4618431143BD
:10B66000084314D0184610431BD0009840210A1AF2
:10B6700018460599FFF7AAFF05460E46009A059958
:10B680000498FFF793FF084305D0012004E020460B
:10B69000394607B0F0BD0020C11705430E432C43C7
:10B6A000374300990E986305401A7905E40A002291
:10B6B0000C43FD0A0A3002D500200146E9E70105E6
:10B6C000101969410C9C0D9D00196941FFF7A2FFFB
:10B6D000DFE70000064C0125064E05E0E36807CCD5
:10B6E0002B430C3C98471034B442F7D3FFF7ECFCE3
:10B6F000F00E0200100F020070B58C180578401C87
:10B700006B075B0F01D10378401C2A1106D1027828
:10B71000401C03E006780E70401C491C5B1EF9D1EA
:10B720002B0705D40023521E0DD40B70491CFAE7D9
:10B730000378401CCB1A921C03E01D780D70491C45
:10B740005B1C521EF9D5A142D8D3002070BD000069
:10B75000054900200860054880680549C8820549F8
:10B76000012048604ADF70470071004000750040CA
:10B770008020002000700040F0B50025FF248BB031
:10B78000013401262F460195204603F0E3FC0028F2
:10B7900008D047484068304204D04648002120186D
:10B7A00035430160241D76007F1CA4B2042FEBD327
:10B7B000FF207D3003F0CEFC002807D03E4800215A
:10B7C0000160400705433D48006901903C4C280753
:10B7D00012D0012700262F420AD03A48B200111891
:10B7E00008690969C004C00E8903A258890F9047EF
:10B7F0007F00761C042EEED3002D57DA0020059032
:10B80000401E4DE0A119403108788506AD0E42B2C8
:10B81000521C39D00121A940089A0091114233D01D
:10B8200080090390284601F04BFF800020580490C7
:10B83000002802D10398032826D1039800990328F1
:10B8400002D10598084305901F4AA8008018006897
:10B85000019A8003800F114202D0022802D013E027
:10B86000032811D10399032907D102281CD00221F2
:10B87000284603F047FC7F1CFFB20498002803D041
:10B88000049A284603999047761C042EBAD3002FB9
:10B890000CD00A4800690199884207D001900598A8
:10B8A00000273E460890ADE70321E1E70BB0F0BD6D
:10B8B00000630040006000407C61004000050050D3
:10B8C0002C2B002000650040000700508307FF225A
:10B8D000DB0E9A408907090E994000280BDA000711
:10B8E000000F0838830808489B001818C369934361
:10B8F0000B43C3617047830804489B001B181868FA
:10B90000904308431860704700ED00E000E400E059
:10B9100010B506490020086048608860C860034987
:10B9200040390860486004F07DFC10BD40110140C2
:10B9300010B50249024802F089F910BD802C0020A0
:10B940000030004010B504F003FC10BD10B50648EF
:10B950004068002805D08047002801D000F044FA54
:10B9600010BD02F013F910BD0C22002010B502F03A
:10B97000F7F9002805D01F491D484860C8131E4923
:10B9800088611E48018CC9B201290BD1828C120733
:10B9900008D1028D1206120F042A03D1828D1206DD
:10B9A000120F0AD0012921D1818C09071ED1018DE6
:10B9B0000906090F0A2904D007E0114A0121916004
:10B9C000F5E7828D1206120F05D00D290ED1808D5C
:10B9D0000006000F0AD10B480168012904D00A496A
:10B9E000016001680129FCD1C021416110BD000046
:10B9F000DFFF07C000050040006C0040C00F00F0F2
:10BA00000006004000EC06407593000010B50422CB
:10BA10000249034802F0FAF810BD0000682C00202B
:10BA20000080004010B504220249034802F0EEF8FD
:10BA300010BD0000742C00200090004010B504F0F0
:10BA4000F1FE10BD2021020C01D010211046020A87
:10BA500001D010460839020901D01046091F82089A
:10BA600001D01046891E420801D0881E7047081A6E
:10BA7000704730B47446641E2578641CAB4200D213
:10BA80001D46635D5B00E31830BC184702E008C840
:10BA9000121F08C1002AFAD170477047002001E048
:10BAA00001C1121F002AFBD170470000202804DAD0
:10BAB000012181400348014201D00120704700204C
:10BAC00070470000FC06FFBC042805D2002803D004
:10BAD000022801D0012070470020704770B5184837
:10BAE0000125456007200326FFF7E0FF154C0028DD
:10BAF0000AD03046FFF7E8FF002805D02068000292
:10BB0000000AB107084320600720FFF7CFFF002895
:10BB100010D02068800FFFF7D7FF00280AD00A480E
:10BB200042688021002A03D002680A43026001E0D3
:10BB300006480160074806494160056070BD000085
:10BB40000073004004E400E02022002000E100E057
:10BB5000080800000075004008B50020009049DF8B
:10BB600001E068464BDF00980028FAD00149012027
:10BB7000086008BD00700040F7B584B00025168845
:10BB800007461580406B1446002813D003780598AB
:10BB9000032E51D30221017021881122491C89B240
:10BBA000218042542188491C89B221804354208835
:10BBB000401C2080386B00281DD005462088059940
:10BBC00002461232B24237D811220A54208810227B
:10BBD000401C80B220800A542088401C20800F2006
:10BBE0002A5C2388401ECA54228840B2521C2280FC
:10BBF0000028F5DA0025384620300290807B0028A6
:10BC000006D033462246059902F0D4F8050014D137
:10BC10000298407B002806D032462146059801F064
:10BC2000A3F9050009D1B878002823D005988646E5
:10BC30002088001DB04202D90C2007B0F0BD684634
:10BC400079DF0028F9D121880320724650542088DA
:10BC50001921401C80B22080115420887146401C5C
:10BC600080B2208041186846008804F06FFE218869
:10BC700040182080F878002817D0218803230A462E
:10BC8000FB56C91C0598B142D6D80221815421889F
:10BC90000122491C89B2218042542188491C89B261
:10BCA000218043542088401C20807868002817D0C9
:10BCB00021880023C3560A46C91C0598B142BBD847
:10BCC0000221815421880A22491C89B221804254D0
:10BCD0002188491C89B2218043542088401C20803F
:10BCE000388900280AD0009438460196062202219D
:10BCF0000830059B04F09FFE05009ED1388A00287D
:10BD00000AD0009438460196072203211030059B83
:10BD100004F091FE050090D1388B00280AD00094E1
:10BD200038460196152214211830059B04F083FE35
:10BD3000050082D1386A002806D03346224605998C
:10BD400001F01EFD0500D8D1786A002806D03346E0
:10BD50002246059902F014FB0500CED10298007B23
:10BD6000002807D0334622463846059904F062F889
:10BD70000500C2D13878002807D03346224638461D
:10BD8000059902F0DFFB0500B7D1284655E710B54D
:10BD900001220221002001F0F3FB002801D0072836
:10BDA00012D107220221012001F0EAFB002801D074
:10BDB000072809D100210A22084601F0E1FB0028EA
:10BDC00001D0072800D1002010BD0000BFF34F8F25
:10BDD00004490348C860BFF34F8F00BFFDE7000070
:10BDE0000400FA0500ED00E00EB50021029000917C
:10BDF0006A4601910148FFF7E9FF0EBD01400000CE
:10BE000010B58268C368934203D001F09DFD002005
:10BE100010BD052010BD002906D0002A02D0531EF7
:10BE2000134203D0092070470E20704701608380C1
:10BE300000218160C1600846704710B58268C36800
:10BE40009A1A83889A4203D801F088FD002010BD19
:10BE5000042010BD70B5054640680C4E0179715C38
:10BE60000124FF290ED0FE290DD002F05FFE01460D
:10BE7000686833460079820008339A58914202D1AB
:10BE8000FF2131540024204670BD0000EC21002029
:10BE900070B5044600680D46808C642180B2504322
:10BEA000FFF764F982B22946204600F001F870BD20
:10BEB000F7B50546046801980C21484307192F205F
:10BEC000005D1646022801D00820FEBD7868B04209
:10BED00006D1A16A002946D068680079884742E007
:10BEE0002846FFF7B7FF002801D01120FEBD696882
:10BEF0001E4A0979FE2050547968002902D0606AF0
:10BF0000814210D3002E02D0606AB04205D832467A
:10BF10002846019903F054FC14E032462846019962
:10BF200003F088FC0EE0002E01D0B04205D8324666
:10BF30002846019903F006FD04E03246284601999F
:10BF400003F084FD2868806A00280CD0686802210C
:10BF5000007942008018054A921C821801981154F9
:10BF6000686802F019FE0020FEBD0000EC210020F0
:10BF7000FFB581B005460768029E0C2046432F207E
:10BF8000C05DF419002802D0082005B0F0BD0020E3
:10BF900060600498A0722C480068009030462968C0
:10BFA0000A30085C002808D00020694648700398D1
:10BFB00002F088FB002816D101E00120F5E7039884
:10BFC000B8510127039938468840049A1F49002A2E
:10BFD00001D0C86000E088600026A019083002F097
:10BFE00027FC002801D00420CFE7761CF6B2022EF1
:10BFF000F3D3207A02F070FC607A02F06DFC2068C6
:10C0000002F0ACFB06466868029902F0B5FD0146F5
:10C01000207A324602F040FC206802F09FFB064680
:10C020000221686802F0A8FD0146607A324602F0FB
:10C0300033FCE7726968002009794A008918044ACC
:10C040008A1802995054A0E7940E0200000500508F
:10C05000EE210020F8B506460768406802F0AEFD04
:10C060000221706802F08FFD002438192030007B17
:10C0700002F032FC641CE4B2022CF6D300240C2043
:10C080006043C519E97A002912D031680A30085C8A
:10C0900000281AD02878012181400F48C160286803
:10C0A00002F066FB287A02F017FC687A02F014FCB2
:10C0B000641CE4B2032CE2D370680021006803F032
:10C0C000E3F801202037F873F8BD29780120884073
:10C0D00001498860E3E7000000050050F8B50768F3
:10C0E000054600246A68204612790C215300484313
:10C0F000D318184AC61900219A181155F17A002947
:10C100000DD029680A30085C002820D00021306852
:10C1100002F056FB306802F03BFB00207060641CAC
:10C12000032CDFD369680B4AFF200979921E505413
:10C1300068680121006803F0A7F8686802F003FD51
:10C14000686802F047FD02202037F873F8BD01212E
:10C15000DDE70000EE210020F7B588B00E000546AF
:10C1600009D02C68204620300690C07B002804D0DF
:10C1700008200BB0F0BD0B20FBE702F0CBFC002841
:10C1800003D0852801D00420F3E702F093FA0028B9
:10C1900005D102F065FA002801D00320E9E70698EE
:10C1A000FF210173069841730698817300200746AA
:10C1B0000C2141430B19DF72FF221A725A720022BE
:10C1C000D243401CC0B262500328F1D30027E019CB
:10C1D0002C3002F02DFB002809D17F1CFFB2022F6A
:10C1E000F5D320462E3002F023FC002803D0284649
:10C1F00003F06AFAC7E70027B8003258501C12D083
:10C20000F019037B39462846FFF7B2FE0490002858
:10C2100004D0284603F058FA0498AAE700223946C9
:10C220002846FFF745FE7F1CFFB2032FE4D3002012
:10C230000922244B716901E04908401C994201D947
:10C240009042F9D3204A516892680292019169465E
:10C25000087168681D4A0079029001A9686802F0B7
:10C26000DFFC070004D0284603F02EFA384680E7AA
:10C2700068680522006812028018716900690E0161
:10C28000C6406662686802F05EFC012700970423DE
:10C2900032460221686802F0ABFC0221686802F0B5
:10C2A00072FC0A98A062686809490079084A80000F
:10C2B0000D506968FF200979103A50540698C773E9
:10C2C000002056E7FF0F0000940E020069F70100FE
:10C2D000FC21002070B5046805462034E07B02286C
:10C2E00002D0002809D002E02846FFF7B3FE284616
:10C2F00003F0EAF90020E07370BD082070BD000073
:10C30000094B9B68002B07D0002A07D0002805D0D6
:10C310000068037C002B03D008207047072070477B
:10C320004174426100207047CC210020FFB5900786
:10C33000002581B014460E46002832D11B4F002C38
:10C3400031D003F07FFC04987861032038703346C5
:10C350001821224600204B43BC601834C1008918C4
:10C360000D704D708E704C601C19401C0328F5DB5D
:10C37000FD607D7001240E48BD702405046003211A
:10C380001420FFF7A3FA0B4804600B4C0198A0603F
:10C3900003211120FFF79AFA60683861002005B088
:10C3A000F0BD0720FBE7BD60FBE70000CC210020CB
:10C3B00080E200E000E100E000150140FEB50D461E
:10C3C0001B4917468968044600292AD0002C28D02A
:10C3D000052D01D20720FEBD6069002821D0607CB8
:10C3E000012820D0002604F0E9FAC000104901908D
:10C3F00089684018694604F00BFB002815D001211C
:10C4000001700C49446049680830E2C0084901984D
:10C410008968411868460078487003F0DBFE002008
:10C42000FEBD0820FEBD2E46DDE70420FEBD000057
:10C43000CC21002000150140F8B5134D0446A96831
:10C4400000291CD0002C1AD06069002817D00026C3
:10C45000267404F0B3FAC700A8686946381804F0D7
:10C46000D7FA00280DD0022101704460A86839185D
:10C4700068460078487003F0ADFE3046F8BD0820ED
:10C48000F8BD0420F8BD0000CC210020F8B51D4601
:10C490000446034616461030084A074602F04CFC94
:10C4A000002809D1384602F037FC256026710020AB
:10C4B0006071A0716072E060F8BD0000CD03020001
:10C4C000F0B585B00F4604460020694608701D4649
:10C4D0001646684600F0C2F8607A002806D0684622
:10C4E000007800F0D9F8112005B0F0BD012060728D
:10C4F0006846007800F0D0F80B496A460868C968B9
:10C50000039191C2684606736946204600F00EF812
:10C510000028E9D102E0002D00D0A847607A002869
:10C52000F9D1A07AE0E70000A00E0200F8B50D46B0
:10C530000446002669460E70684600F08FF8A07920
:10C540002179814202D16179002903D06179491EA4
:10C55000814205D168461126007800F09DF811E06F
:10C56000216882008D50401C2179C0B2814200D2E6
:10C570000020A0716846007800F08EF80021204667
:10C5800003F052FD3046F8BD10B5044609488168F5
:10C59000C2688088511A814207D10121064802F001
:10C5A0008BFC002801D0052010BD21460148FFF773
:10C5B00027FC10BD0C2B00209921002070B50446EB
:10C5C000224888B01E460D0042601CD0A888296809
:10C5D00082B21F48FFF71FFC002815D1A889A9685F
:10C5E00082B21B481030FFF716FC00280CD1202225
:10C5F00018496846FEF7D0FDA0680690207900280B
:10C6000004D0012103E0072008B070BD0021684676
:10C61000017506776079002800D00E2069464875BC
:10C62000E0780290A07803902078019060780090E4
:10C630000949684602F0DCFB0028E5D102F062FC03
:10C6400002480121401C02F037FCDDE79821002060
:10C650000C2B0020280E02007507020030B5EFF306
:10C66000108172B6094A54680123002C04D003706B
:10C67000002900D162B630BD5360054B1D68054CE2
:10C68000254015601C6000220270F1E72022002086
:10C6900080E100E0FC06FFBC08494A68002A0CD093
:10C6A00000280AD1EFF3108072B60A68044B1A60B2
:10C6B00000224A60002800D162B670472022002084
:10C6C00000E100E010B5194C002217492068FFF77F
:10C6D00075FE002801D0FFF787FB01210022090326
:10C6E0006068FFF76BFE002801D0FFF77DFBFF219C
:10C6F00000224931A068FFF761FE002801D0FFF752
:10C7000073FB00220A49E068FFF758FE002801D0B9
:10C71000FFF76AFB002207492069FFF74FFE002858
:10C7200001D0FFF761FB10BD8F020000900C0200EA
:10C73000CD0C000066060000800B01D00020704781
:10C740000120704770B5284904460FC996B00FAD57
:10C750000FC526486A4610870FA80EAE811E63DFFC
:10C760001C216846FEF731FD6A4610780A21002533
:10C770000843691C0907090F08AA10310C951174A8
:10C78000691C0907090F10315174937CF9210B4082
:10C790009B1C93740CAA0592102210436A461070D9
:10C7A00008AA0D95907D0840801C90751120107589
:10C7B0005075142107A8FEF708FD0DA80890142055
:10C7C00007966A461085908414A814950B9023460A
:10C7D000E088303307AA6946A2DF002801D0FFF7BE
:10C7E00003FB002016B070BDE80D020016AA000081
:10C7F00070B5294904460FC996B00FAD0FC527483B
:10C800006A4610870FA80EAE811E63DF1C216846A2
:10C81000FEF7DBFC6A46107802210843F721002569
:10C820000840691C0907090F08AA10310C951174FA
:10C83000691C0907090F10315174937CF9210B40D1
:10C840009B1C93740CAA0592102210436A46107028
:10C8500008AA0D95907D0840801C907511201075D8
:10C860005075142107A8FEF7B0FC0DA808901420FD
:10C8700007966A461085908414A814950B90234659
:10C88000E088283307AA6946A2DF002801D0FFF715
:10C89000ABFA002016B070BDD80D020017AA000038
:10C8A000F0B50546007D002493B00E4600280DD05B
:10C8B000012001466846103103940173717B417376
:10C8C000817BF92001406846891C81731C2104A8E2
:10C8D000FEF77BFC6946087C022108436946087420
:10C8E0002A7DEF21002A02D01022104300E00840E8
:10C8F0006A461074059407940894287D002800D097
:10C9000003A8099001270A9410469771304A828043
:10C910000094B27B0270F27B42708078F922104062
:10C92000F722801C1040EF2108404108490068466A
:10C930008170317B017214210BA8FEF746FC01A81F
:10C940000B9068460C908786C486078702A80F90D4
:10C95000A888AB1D0BAA04A9A2DF002835D1B068B6
:10C96000002830D0684687711A4981800094317C54
:10C97000017000200146684641708078F921084026
:10C98000F721801C0840EF21084041084900684613
:10C99000817011A8B16800F033FD064614210BA880
:10C9A000FEF713FC01A80B9068460C908686C4869F
:10C9B000068711A80F902A46E8880E320BA9A3DF3C
:10C9C000002802D100E0EC81002013B0F0BD00008F
:10C9D000192A000008290000F0B50C4693B01F2169
:10C9E0006A461180072600279180002809D0C17867
:10C9F00049070DD502A9FFF7BFF8002809D102ADFC
:10CA000001E000251780002C0ED0E078002802D02D
:10CA1000304613B0F0BD01AA0AA92046FFF7ACF8D2
:10CA20000028F6D10AAA02E06846002287806846FC
:10CA30008088C3B268460088C1B2284672DFE8E742
:10CA400070B50D4604991646040042D0002E40D021
:10CA5000424800224271C3600161242231464048AD
:10CA6000FEF79AFB00F0BCF83D4934310846103817
:10CA700001602031816038215C38FEF7A6FB384820
:10CA8000217838380170A1788170E178C1706178BF
:10CA900041706269216942610161E268A168C26016
:10CAA00081600146E369A269CB618A61616A0029FC
:10CAB00019D00146AC310246B83241628A60636ADD
:10CAC0001B880B80616A436A898899800021436AC8
:10CAD00006E00E2070BD666AB668765C5654491C46
:10CAE0009E888E42F7D8A16A00291CD01C4AAC321D
:10CAF00011460C398A608162A36A9B888B80A16A87
:10CB0000836A098819800021836A04E0A66AB668EE
:10CB1000765C5654491C9E888E42F7D82C210A5DBB
:10CB20000F4918390A73216A002909D00B491431B9
:10CB30000162226A52884A80216A026A0988118049
:10CB40006168002904D00549891D41606168416020
:10CB5000034829463838FFF73FFF70BD64210020A5
:10CB6000042A002010B502881C4C102A17D000217E
:10CB7000112A1AD01B2A11D1007A00280ED160790F
:10CB800001281ED0022822D0032822D0042805D153
:10CB90002171E2680846002A00D0904710BD817DCF
:10CBA0000129FBD18088208110BD61708088218996
:10CBB0008842F9D1012005E021690029F4D0884795
:10CBC00010BD022000F014F80028F5D110BD03209C
:10CBD000F8E7032020710420F4E70000642100201E
:10CBE00010B507210148FEF7F0FA10BD7C210020A6
:10CBF000F0B5784C87B06071002606A8069602F062
:10CC0000EDFB0127082802D0002808D104E006A87F
:10CC100000F0AEFE002804D10698002801D027704D
:10CC2000D4E0FFF7DDFF6C4D6878002802D0607912
:10CC3000012807D0A87800280CD06079012801D0FD
:10CC4000022824D1E168002903D0E7700820884732
:10CC500000E0E6706079012808D16878002809D0E2
:10CC60005C48193002F076FB002803D06079022876
:10CC700002D00CE002206071A878002805D0554849
:10CC8000193002F067FB002801D103206071287B76
:10CC9000002804D16079032801D104206071287E26
:10CCA000002804D16079042801D166712671E168F9
:10CCB00000290AD06079032801D0042805D12878FA
:10CCC000002802D06078002817D0A6701821684686
:10CCD000FEF77BFA68460670019606720396607945
:10CCE00001280ED0022815D03B4E243637465C3F33
:10CCF00003281BD004285DD13AE0A770072088479D
:10CD0000E4E734481830019068460770468206828E
:10CD1000277152E02F481830019068460770298922
:10CD20004182A98801820220207146E0A88A6946D2
:10CD30004882288A08822848243003F0EBFE002825
:10CD400005D02878002802D06078002801D0032080
:10CD50002FE002206946087204200396F8701E48EE
:10CD600000213838FFF738FE002830D1052020E0B8
:10CD7000A88B69460882288C48821748243003F023
:10CD8000C9FE002805D02878002802D06078002845
:10CD900001D004200DE002206946087204200396A9
:10CDA000F8700D4800213838FFF716FE00280ED124
:10CDB000062020716079002803D0684673DF0028C0
:10CDC00005D1E168002901D020798847002007B00B
:10CDD000F0BD000064210020042A002038B50D4673
:10CDE00004001AD0002D18D0286820600020C0430D
:10CDF000608228792075FF202074012168468170A7
:10CE000007490180221D69460120A0DF002803D1C7
:10CE100029462046FFF744FD38BD0E2038BD0000EE
:10CE20000F18000038B5002824D0002922D00A8825
:10CE3000102A1AD0112A1AD0502A1BD1027D002A9A
:10CE400018D0CA884389891D9A4213D14A89022A77
:10CE500010D10268002A0DD04B7B0C7B19022143B4
:10CE6000C907C90F07D0002106E0898801E0002129
:10CE7000C943418238BD01216B461970694690470C
:10CE800038BD000070B5054601461C220E48FEF76D
:10CE900083F90E4C002626702968002906D0082246
:10CEA000201DFEF779F9201D7ADF02E00748001DFA
:10CEB0007BDF002807D1401E60806670044A002195
:10CEC0000448FFF71DFA70BDF02A002084210020DD
:10CED00059090200840D0200F8B5214C0288002790
:10CEE0001E4DE689102A15D01E49112A21D0122A7A
:10CEF0002DD0502A1CD1C288801DB24218D142893F
:10CF0000022A15D1427B037B10021843C007C00FD1
:10CF10000CD112E08188698001461048082218313E
:10CF20000C30FEF739F96F70002E01D100F070FC63
:10CF3000F8BD0020C04368806F700868FFF77CFA76
:10CF40000028F5D0A1690029F2D08847F8BD082251
:10CF5000811802480C30FEF71FF9E7E78421002012
:10CF6000F02A0020840D02007CB5054608880C4696
:10CF70000930904201D90C207CBD684671DF002841
:10CF8000FAD121880820685420881B21401C80B2D7
:10CF900020802954208800A9401C80B2208040199C
:10CFA00006220131FEF7F8F820886946801D80B21C
:10CFB00020800978002900D0012129542088401CB4
:10CFC000208000207CBD000010B50446FFF784FFE0
:10CFD00021460B4800F0E4F9094821462C30FFF7C0
:10CFE00021FF07482146443000F036F9204602F080
:10CFF000D9F82046FFF7B6FD204600F03FFA10BDF5
:10D00000342800208AB00B786A4613704B7853702E
:10D010008B789370CB78D3700B7913714B795371F4
:10D020008B799371CB79D3710B7A13724B7A5372DC
:10D030008B7A9372CB7AD3720B7B13734B7B5373C4
:10D040008B7B9373CB7BD3730B7C13744B7C5374AC
:10D050008B7C9374C97CD174034640331989104A80
:10D0600091421BD014216A469184002105910691BA
:10D0700007910891008E908201209075118309A874
:10D0800008920790188905A9A6DF002804D16946EF
:10D09000898C142900D00C200AB070470820FBE7C7
:10D0A000FFFF000088B00B786A4613754B78537504
:10D0B0008B789375CB78D3750B7913764B79537640
:10D0C0008B799376C979D176024640321189104B1B
:10D0D00099421BD0082369460B80002301930293D9
:10D0E00003930493008D8880012088710B8105A82B
:10D0F00003910490108901A9A6DF002804D1694694
:10D100000988082900D00C2008B070470820FBE7E8
:10D11000FFFF000030B50D460446002185B0C9432D
:10D12000403001812968E16469682165A968616509
:10D13000E968A16500212D4B81720FCB03936B46EB
:10D1400007C32B48694608821231684663DF00280E
:10D1500001D0FEF749FEA21D04A90120A0DF00288E
:10D1600001D0FEF741FE2946204603F033FD00289A
:10D1700001D0FEF739FE2946204603F0D3FC0028F3
:10D1800001D0FEF731FE2946204601F083F9002840
:10D1900001D0FEF729FE2946204601F025F9002896
:10D1A00001D0FEF721FE29462046FFF721FB00288B
:10D1B00001D0FEF719FE29462046FFF7C3FA0028E2
:10D1C00001D0FEF711FE2946204600F073FE00282C
:10D1D00001D0FEF709FE2946204600F015FE002882
:10D1E00001D0FEF701FE05B030BD0000180E0200B0
:10D1F00011AA000086B00B786A4613754B785375F8
:10D200008B789375C978D175014640310A460989F2
:10D21000104B99421BD0042369460B8000230193D5
:10D22000029303930493008F8880012088710B81FF
:10D2300005A803910490108901A9A6DF002804D154
:10D2400069460988042900D00C2006B070470820E0
:10D25000FBE70000FFFF000010B500280CD00029FC
:10D260000AD00B8802464032102B06D0112B06D074
:10D27000502B01D101F0CCFF10BD888801E00020C7
:10D28000C043108110BD000030B58BB00D786C46E6
:10D2900025704D7865708D78A570CD78E5700D7925
:10D2A0002571497961711178A1715178E171917895
:10D2B0002172D17861721179A1725179E172197874
:10D2C0002173597861739978A173D978E1731979C9
:10D2D000217459796174014640310A890F4B9A4291
:10D2E0001AD01223A384002305930693079308936F
:10D2F0000089A0820120A075238309A808940790C3
:10D30000088905A9A6DF002804D16946898C12295D
:10D3100000D00C200BB030BD0820FBE7FFFF000061
:10D3200030B51D4B0D4604000FCB85B003936B4603
:10D3300007C32ED0002D2CD00020C043A083286826
:10D34000206268686062A868A0620020A077214619
:10D35000684663DF00281AD12178684681740F4936
:10D360000182A21C04A90120A0DF00280FD12946B8
:10D37000204602F047F8002809D12946204602F04D
:10D3800007F9002803D12946204602F049F905B0E3
:10D3900030BD0E20FBE70000880D020021AA00002E
:10D3A00030B4002817D0002915D00A88102A0DD0D3
:10D3B000112A0DD0502A0ED18A1DCB8884881231B3
:10D3C000A3420AD1046A002C0DD106E0898801E04D
:10D3D0000021C943818330BC70478489A34206D1B0
:10D3E000446A002C03D05289A44630BC6047848A2A
:10D3F000A342F0D1836A002BEDD0528930BC18478C
:10D400000A780270497841700220704700B51748C9
:10D4100087B04069059000234822154905A802F00D
:10D42000E9FD002801D0FEF7DFFC6A46012100205B
:10D4300002F0C6FD002801D0FEF7D6FC0D4802F030
:10D440005BFC002801D0FEF7CFFC684602F0AEFD81
:10D45000002801D0FEF7C8FC074802F09DFD002817
:10D4600001D0FEF7C1FC07B000BD0000900C020027
:10D470001C230020E81F0020C9CF010010B51C4C60
:10D480000188606810290DD011290AD1401E606002
:10D4900007D1FEF77CFC002803D02168002900D0CA
:10D4A000884710BD00281ED100210122084600F047
:10D4B00067F8002801D0072811D107220221012096
:10D4C00000F05EF8002801D0072808D104220221CC
:10D4D000002000F055F8002805D0072803D0216867
:10D4E000002900D088476068401C606010BD0000C3
:10D4F0005C21002010B5032000F05EF8002801D068
:10D50000062800D1002010BDF8B507461A4800686B
:10D51000B84213D11848194D0C38EE1E002921D0FD
:10D520002A46527801290AD0022907D11446002C34
:10D5300004D07169002901D020468847F8BD2C78B5
:10D54000002A0AD0B1680A2251430C4A8068921E10
:10D55000FEF734FF002800D177700848A978401EF4
:10D560000170E4E78068FEF767FF0448AC78401E6E
:10D570000078A042DBD0F8BD780D020047210020E2
:10D5800003460020002B0BD10A4B012A02D10129AE
:10D5900008D0002200290AD0012904D0022904D091
:10D5A000072070470D221A7070475A7070479A70A2
:10D5B0007047000047210020084909688A0008498F
:10D5C00052181168C007C00F00D0032003231B04AA
:10D5D000994300040843106000207047780D020052
:10D5E0000007005070B51B4800691B4C0007C30FB3
:10D5F000E372A27B0025217B607B002B06D0491EB5
:10D6000004290ED82573401C607370BD491CC9B233
:10D610002173A5733C29F8D30028F6D10520607149
:10D6200070BD521CD1B2A1730429F9D301280CD1C9
:10D630006070A5822078042806D20D2001F07AFDC2
:10D640002078401C207000E0257065732573A57359
:10D6500070BD000000050050802000200022D24351
:10D66000830004490428CA5002D3081820300277E6
:10D67000704700002C2B0020F0B50025ED43002A58
:10D6800002D00023042601E0042308260B4C04E00A
:10D690009F00E7597F1C04D05B1CB342F8D3284697
:10D6A000F0BD26185DB2203635709E00A151002ACB
:10D6B000F5D1E11820310877F1E700002C2B00208C
:10D6C0000249091820200856704700002C2B002022
:10D6D0007047704770470000F8B52348C1680029BB
:10D6E0003ED00E6821494C680769C078E11B0D02E5
:10D6F0002D0AED1C002814D101201D4A00045060A1
:10D700001B4A403A50601B49400008601A490860B3
:10D710001A49012008602F20FDF7FCFC1249012066
:10D72000C870B54200D23546E81900020F4B000A16
:10D73000403318600D4A5168001B091B0902090A91
:10D740000002000AC91C814209D9506818602F20C4
:10D75000FDF7E0FC01200749400480390860F8BD6E
:10D7600002F070FAF8BD0000CC2100200015014045
:10D770004013014080E200E000E100E000100140C1
:10D78000F8B50646108814468446801D0D4698421A
:10D7900001D90C20F8BD32880720062AFAD31927B0
:10D7A000FF01184BBA4201D99A42F3D17188062978
:10D7B000F0D3B94201D99942ECD19A4203D09942AF
:10D7C00001D08A42E6D805216046295420881221DA
:10D7D000401C80B2208029542088401C80B22080C8
:10D7E0004119308803F0B2F82188401880B22080B7
:10D7F0004119708803F0AAF8218840182080002081
:10D80000F8BD0000FFFF000010B5FEF7EDFA10BDF7
:10D81000F8B5164800F096FA144D00260C3D144C4D
:10D82000002807D0616900291CD001206A461070C9
:10D83000684616E02878002805D06169002911D0D3
:10D84000684606700DE0687800280DD0A168094888
:10D8500000220068FEF7B2FD002803D0A16900296C
:10D8600000D088472E70F8BD6168F0E79021002055
:10D87000F02A0020840D020010B5104C607A0028B8
:10D880000BD0102805D8092001F04CFC082001F02D
:10D8900049FC607A112802D007E001200CE0092041
:10D8A00001F048FC082001F045FC607A112801D9FC
:10D8B00000206072C0B2401C607210BD8020002049
:10D8C00010B5104C207A00280DD0401CC0B2207238
:10D8D000C1070BD00A2809D8092001F023FC082031
:10D8E00001F028FC05E00120207210BD082001F0A5
:10D8F00019FC207A0A28F8D90020207204206071CF
:10D9000010BD00008020002010B50E4900234A7889
:10D910008C78A24212D0521CD2B24A70022A00D194
:10D920004B704A78074B920018339A580260086986
:10D9300010180002000A0861012010BD03600020D9
:10D9400010BD0000CC210020826883881A40036843
:10D950009A5C0A708168491C81607047C26883883C
:10D960001A4003689954C168491CC160704700009F
:10D97000002804D00349496D01600020704703204E
:10D9800070470000A82C00201CB500240122009440
:10D99000234611460D20019401F062FB0D2001F099
:10D9A000C9FB01220094002311460820019401F0D4
:10D9B00057FB082001F0B6FB01220094002311461A
:10D9C0000920019401F04CFB092001F0ABFB03207E
:10D9D0000022034611460094019001F041FB012210
:10D9E0000094002311460E20019401F039FBFA2027
:10D9F00000F0F8FD0E2001F095FB0A2000F0F2FD8A
:10DA00000E2001F097FB0A2000F0ECFD0E2001F043
:10DA100089FB1CBD10B50020144C02E00B5C2354A4
:10DA2000401C9042FAD320781149002804D00128E4
:10DA300002D0022802D006E0C87010BD0D49084689
:10DA40008638FFF7DFFA2078032805D10949143119
:10DA500008469A38FFF7D6FA20780428EDD1054910
:10DA600028310846AE38FFF7CDFA10BDF422002069
:10DA700080200020FE28002070470000F8B500201C
:10DA8000284B02E00C5C1C54401C9042FAD31878DE
:10DA9000FF2846D1244C00202070E08AFDF732FD9B
:10DAA000224A234BFDF74EFC0022224BFDF7B2FC2D
:10DAB000E16705460E46204A204BA067FDF790FB24
:10DAC000E166A066074600911B4A1C4B284631467A
:10DAD000FDF72AFC6167206705460E463A4600209E
:10DAE0001749009BFDF720FC164F02460B4600200D
:10DAF0003946FDF78FFCE1640022134BA064FDF76B
:10DB000021FCE165A0653146F80341400B462A46F9
:10DB100000203946FDF77EFC616520650020206607
:10DB20006066F8BDE022002080200020CDCCCCCC67
:10DB3000CCCC0C4000E06F409A9999999999993F03
:10DB400000000840000059C0000008C010B50020C7
:10DB5000074B02E00C5C1C54401C9042FAD319782D
:10DB60000448002901D0012900D1817010BD0000B6
:10DB7000CC2200208020002010B5092001F0D2FA2C
:10DB8000082001F0CFFA10BD70470000F8B51C4C1A
:10DB90002078002833D02069002807D00026E068CC
:10DBA000002805D00025002E04D011E00126F6E75C
:10DBB0000125F8E7684652DF052804D0002804D084
:10DBC000FEF712F904E0012602E021690098884777
:10DBD000002D10D1608869460880A06861DF0528A3
:10DBE00004D0002804D0FEF7FFF804E0012502E08D
:10DBF000E168A0688847002EDCD0002DD3D0F8BDA6
:10DC00000C2200208872002048727047F7B500256A
:10DC1000164604462F4616E0A80001210904A94033
:10DC2000FF3041302258002A0BD003221202A218E2
:10DC300052680A4205D02750019A01991268496832
:10DC400090476D1CEDB2B542E6D3FEBD7FB50C46E4
:10DC50000D462035064669782878019100902246C5
:10DC60002632D11E3046E36902F02BFC002819D180
:10DC7000E87800281DD1207B022801D0032818D184
:10DC80002269E169914214D16269E261E37B2B7000
:10DC9000217E8906C90F6970032804D031462046C9
:10DCA00002F0B2FB7FBD00913146204602F08CFCB1
:10DCB0007FBD20460C3007C801AB07C3E8780021C0
:10DCC00000280ED00920C0013218506C5064820721
:10DCD00001D5012002E0400705D502206A461070F8
:10DCE00001E0684601702971207E4007E0D4226877
:10DCF0006846616890477FBD0121814003484068C4
:10DD0000014201D00120704700207047C42100204B
:10DD10000121814003484078014201D00120704731
:10DD200000207047C4210020014610B50120884022
:10DD3000FEF702FD10BD01218140880700D00120BF
:10DD400070470000418805480288914204D340880A
:10DD5000814201D8012070470020704788210020AF
:10DD60001048018CC9B2012917D1818C090714D13F
:10DD7000018D09060A0F03D1828D1206120F0ED0F3
:10DD8000090F012903D1828D1206120F07D0032932
:10DD900003D1808D0006000F01D0002070470120C4
:10DDA00070470000C00F00F001218140880400D0BE
:10DDB0000120704730B51588EC1C9C4201D90C201D
:10DDC00030BD02244C5513881C255B1C9BB213806C
:10DDD000CD5413885B1C9BB21380012807D0022806
:10DDE00007D0032807D0042807D0072030BD002023
:10DDF00004E0012002E0CC5401E00320C854108864
:10DE0000401C1080002030BD70B5284904460FC961
:10DE100096B00FAD0FC526486A4610870FA80EAE04
:10DE2000811E63DF1C216846FDF7CFF96A46107832
:10DE30000A2100250843691C0907090F08AA1031A7
:10DE40000C951174691C0907090F10315174937CEA
:10DE5000F9210B409B1C93740CAA059210221043CD
:10DE60006A46107008AA0D95907D0840801C907538
:10DE7000112010755075142107A8FDF7A6F90DA8FB
:10DE80000890142007966A461085908414A814956B
:10DE90000B902346E088403307AA6946A2DF00289A
:10DEA00001D0FDF7A1FF002016B070BD080E0200E2
:10DEB00018AA000070B5294904460FC996B00FADE5
:10DEC0000FC527486A4610870FA80EAE811E63DF74
:10DED0001C216846FDF779F96A461078022108434B
:10DEE000F72100250840691C0907090F08AA10310D
:10DEF0000C951174691C0907090F10315174937C3A
:10DF0000F9210B409B1C93740CAA0592102210431C
:10DF10006A46107008AA0D95907D0840801C907587
:10DF2000112010755075142107A8FDF74EF90DA8A2
:10DF30000890142007966A461085908414A81495BA
:10DF40000B902346E088383307AA6946A2DF0028F1
:10DF500001D0FDF749FF002016B070BDF80D02009A
:10DF600019AA0000F8B52C49C8680A690C780F791D
:10DF700089688646944600913EE00099E200551873
:10DF80002A7836E0182353436968521CC918AB78C5
:10DF9000D2B2934200D100220B78022B02D0032B85
:10DFA00027D123E04E680346014603E0B14204D086
:10DFB0000B46C96900291CD0F8E7002919D08B420B
:10DFC00008D1C069002805D1144F0126BE60002683
:10DFD000B44601270E68C969D961002909D00B68C8
:10DFE0009B190B6005E00174C06900E00021002866
:10DFF000F9D169789142C5D12146641EE4B2002965
:10E00000BBD1054962460A61C8600F71704501D0F5
:10E010000120F8BD0020F8BDCC21002000100140F7
:10E02000F8B5044631480026C168009107784EE0F3
:10E030002E48F90080680D1843E0002C02D02046DD
:10E04000E4691FE02878182141436A68401CC0B287
:10E0500051182870AA78904200D12E700A7848682A
:10E06000012A30D1027C002A2DD18A684260CA6818
:10E0700082600A69C260496981611C490979002985
:10E0800000D04660194943680A699C46991A0902FA
:10E09000174B090A994202D28268891807E0614643
:10E0A000511A09028268090A8A4202D9511A01608A
:10E0B00000E006604660012186600174C66102F0DE
:10E0C00091F8002CB9D1287869788842BAD13846BD
:10E0D0007F1EFFB20028ABD10448C168009881427E
:10E0E00001D00120F8BD0020F8BD0000CC210020A7
:10E0F000FFFF7F0070470000874DA6B08549E967A4
:10E100008348A8678549E9660020A866854969674C
:10E11000834828678549E9648348A8648549E96597
:10E120008348A86585496965834828650020286675
:10E13000686614218248FDF748F88148142114309C
:10E14000FDF743F87E4814212830FDF73EF87D4C5A
:10E1500004AB2046303007C807C3FF2101317A489D
:10E16000009040180191039102900323774A694679
:10E1700004A8FEF723FA002801D0FDF735FE643429
:10E180000FCC03936B4607C36D4B6348E63B0622F7
:10E1900069468030FEF77AF9002801D0FDF724FEA9
:10E1A000FDF79CFC5C480023022269498030FEF7A1
:10E1B00087F959480023012266498030FEF780F92B
:10E1C00055480023022264498030FEF779F9C820BF
:10E1D00000F008FA50480023012260498030FEF721
:10E1E0006FF958494C4854318030FEF79FF90028A8
:10E1F00001D0FDF7F9FD02F055F8FFF7C5FB5149D5
:10E2000018223C316846FCF7C7FF4E48544A69461D
:10E210001830FDF7A1FF002801D0FDF7E5FD4948C2
:10E220001830FDF75BFFFFF7F1F81120694608721F
:10E230000C224CA102A87CDF002801D0FDF7D4FD00
:10E240000024009410216846019401803C21418003
:10E25000FF2184809131C1807ADF002801D0FDF751
:10E26000C3FD01F02FFE382101A8FCF7AEFF02210B
:10E270006846017184710521C17138210FA8FCF72E
:10E28000A4FF012610A88681234824211830149069
:10E290001DA8FCF79AFF20A8067040202190B4200A
:10E2A0002290344B1DAA0FA9009401A8FEF7C8FBC9
:10E2B000002801D0FDF798FD1C216846FCF785FF7A
:10E2C0000520C00301900F20000402900094032158
:10E2D00068460173C4810474274805902748069056
:10E2E0006846FEF7CFFD002801D0FDF77DFD032035
:10E2F000FEF77EFC02216971002801D0FDF774FD54
:10E30000FEF7E0F948DF0028FCD0FDF76DFDF9E7E6
:10E310009A9999999999F93F802000200000FA3F35
:10E32000343333333333F93F2FBAE8A28B2E52C044
:10E3300046175D74D1456B40EFFBBEEFFBBE4F400F
:10E34000FE280020900C0200182600202D07020055
:10E35000D40E0200B40E0200BC0E0200E80E020051
:10E360005DF70100536D617274204D6F64756C65CB
:10E37000000000008DF10100F1F1010009D8010059
:10E3800070B5144682880E4605462088111D411836
:10E39000921C994201D8FE2A01D90C2070BD521C52
:10E3A00032542088FF21401C80B2208031542088C4
:10E3B000401C80B220808119288802F0C7FA218889
:10E3C000401880B22080AA88002A09D0A9680029B4
:10E3D00008D08019FCF7E0FE2088A988401820802A
:10E3E000002070BD072070BD70B5284904460FC9D4
:10E3F00096B00FAD0FC526486A4610870FA80EAE1F
:10E40000811E63DF1C216846FCF7DFFE6A46107838
:10E410000A2100250843691C0907090F08AA1031C1
:10E420000C951174691C0907090F10315174937C04
:10E43000F9210B409B1C93740CAA059210221043E7
:10E440006A46107008AA0D95907D0840801C907552
:10E45000112010755075142107A8FCF7B6FE0DA801
:10E460000890142007966A461085908414A8149585
:10E470000B902346E088203307AA6946A2DF0028D4
:10E4800001D0FDF7B1FC002016B070BDC80D020030
:10E4900012AA000070B5294904460FC996B00FAD05
:10E4A0000FC527486A4610870FA80EAE811E63DF8E
:10E4B0001C216846FCF789FE6A4610780221084351
:10E4C000F72100250840691C0907090F08AA103127
:10E4D0000C951174691C0907090F10315174937C54
:10E4E000F9210B409B1C93740CAA05921022104337
:10E4F0006A46107008AA0D95907D0840801C9075A2
:10E50000112010755075142107A8FCF75EFE0DA8A8
:10E510000890142007966A461085908414A81495D4
:10E520000B902346E088183307AA6946A2DF00282B
:10E5300001D0FDF759FC002016B070BDB80D0200E7
:10E5400013AA0000F8B50F460178144605460129C4
:10E5500002D16878002806D02088821C9A422DD8E3
:10E56000012902D006E00720F8BD69784118891C0E
:10E57000994223D8181A801E86B2684606802188E0
:10E58000B81C081869467DDF0028EDD128780228DC
:10E5900005D169460988B14201D809210AE008215C
:10E5A000012805D16878B04202D86A46108001E09F
:10E5B0006846068068460088FE2801D90C20F8BD10
:10E5C0002288401CB8542088401C80B220803954D6
:10E5D00020886946401C208009884018208000203F
:10E5E000F8BD000031B5054C04E0401E0090204607
:10E5F000FCF770FD00980028F7D138BDE703000054
:10E600008207D30EFF229A408907090E10B5994060
:10E6100000280BDA03071B0F083B9C080C4BA400D7
:10E62000E318DC6994430C43DC6107E08408094B80
:10E63000A400E418236893430B432360C106C90E6A
:10E6400001208840044908600449086010BD0000AA
:10E6500000ED00E000E400E080E200E000E100E026
:10E6600070B5124D2879002801D0082070BD0F49DF
:10E6700000204039421E0B182033401CC0B21A70D3
:10E680002028F8D300242046FEF7E8FF641CE4B2FB
:10E69000082CF8D303210620FFF7B2FF012004491C
:10E6A000C007486001202871002070BD6C2B00203D
:10E6B0000063004002480079002800D00120704724
:10E6C0006C2B0020FEB5044620480D46001900269C
:10E6D00020308157491C01D0082633E0A978002951
:10E6E0001DD0012200212046FEF7C6FF411C14D098
:10E6F000830017482A78181869780369154F3B403A
:10E7000003610369E706FF0C9207920BC907C90A68
:10E710003B430A431343036104E0042612E0012152
:10E72000C94301706A780120A0400B49012A0BD02F
:10E73000C860002100910B4601220191204611463C
:10E7400000F0A0FC3046FEBD8860F2E72C2B0020D4
:10E7500000650040FFE0ECFF0005005010B5FEF73B
:10E76000AFFF80060149000E401810BD0060004058
:10E770000549091820200856810004480818016935
:10E7800089088900016170472C2B0020006500403A
:10E790000949091820200856810008480918086905
:10E7A000032210431F22120202430A6100BF00BF6E
:10E7B00000BF0861704700002C2B0020006500405E
:10E7C000002900D00121074A12182020105682008B
:10E7D00005481218106901231B05984309050843D1
:10E7E000106170472C2B00200065004010B50446D6
:10E7F00000F0BCFD00280DD02046FEF761FFC0B23E
:10E80000FEF72CFF2046FEF75BFF074A0021800041
:10E8100080180161054800210019C94320300170AA
:10E82000204600F053FC10BD006500402C2B00205A
:10E83000F1B50427164E82B0002400206946087006
:10E840006846FDF70BFF0125A540354204D0204660
:10E85000FFF752FA00280CD068460078FDF71CFF3D
:10E86000002F04D0641CAE43E4B2002EE5D138463C
:10E87000FEBD084901204A68A04010434860029844
:10E880000027047068460078FDF706FFEFE70000F8
:10E89000FF3F0000C421002070B514460D0006465D
:10E8A00011D0002C0FD0FFF77FFA00280DD0304692
:10E8B000FFF722FA00280AD00648F100081805617F
:10E8C0004461002070BD0E2070BD072070BD08207F
:10E8D00070BD000000F5014010B50446FFF724FAB2
:10E8E00000280FD02046FFF75FFA002804D020460A
:10E8F000FFF702FA002807D001200449A0408860F1
:10E90000002010BD072010BD082010BD00F50140FB
:10E9100010B50446FFF708FA00280FD02046FFF78D
:10E9200043FA002804D02046FFF7E6F9002807D074
:10E9300001200449A0404860002010BD072010BD00
:10E94000082010BD00F5014038B50546FFF72CFA48
:10E95000002812D001240A48AC4084600021684697
:10E960000170FDF77BFE07484168A143416068469E
:10E970000078FDF791FE002038BD072038BD00006B
:10E9800000F50140C421002038B505460C46084674
:10E99000FFF7D1F900281CD02046FFF7B9F900286D
:10E9A00015D02846FDF7C8FE002812D00021684681
:10E9B0000170FDF753FE0848A100081801682943BB
:10E9C000016068460078FDF767FE002038BD08202A
:10E9D00038BD072038BD000000F8014038B50546B5
:10E9E0000C460846FFF7A7F900281CD02046FFF781
:10E9F0008FF9002815D02846FDF79EFE002812D07A
:10EA0000002168460170FDF729FE0848A10008189A
:10EA10000168A943016068460078FDF73DFE0020CB
:10EA200038BD082038BD072038BD000000F801407F
:10EA3000F1B50427032682B000240020694608703F
:10EA40006846FDF70BFE0125A540354204D020465F
:10EA5000FFF75EF900280CD068460078FDF71CFE31
:10EA6000002F04D0641CAE43E4B2002EE5D138463A
:10EA7000FEBD074901204A78A04010434870029823
:10EA80000027047068460078FDF706FEEFE70000F7
:10EA9000C421002010B50446FFF74DF900280BD023
:10EAA0002046FFF735F9002808D0054A0120E1008B
:10EAB00089180860002010BD072010BD082010BD77
:10EAC00000F0014038B50446FFF735F9002819D0A9
:10EAD0002046FFF71DF9002816D00C490125E0005B
:10EAE00040184560002168460170FDF7B7FD0848F1
:10EAF000A5404178A943417068460078FDF7CCFDF8
:10EB0000002038BD072038BD082038BD00F0014086
:10EB1000C421002004480178002901D085207047D5
:10EB20000121017000207047C421002015220068D7
:10EB30008900920189184058704702688800403067
:10EB4000C0B21018704700680121C160704770B5ED
:10EB5000012424048C40032605683602AD19002BDD
:10EB600001D06C6000E0AC600068890008180521E5
:10EB700009024018026470BD02688800FF3041300D
:10EB800080B21018704702680120000488400321F9
:10EB900009025118886070478A0010B5FF3241326F
:10EBA000036892B200249C5002680120000488404F
:10EBB000032109025118486010BD000002680121BC
:10EBC000116100790C225043014A8018017270478C
:10EBD000682C0020016801220A6000790C22504351
:10EBE000024A02218018017270470000682C002040
:10EBF000F0B5FF25023504688D40FF34FF34023440
:10EC0000059E2768AF4327600468FF34FF34023451
:10EC100025681D4325603346FFF799FFF0BD0000CE
:10EC200070B504460D4600790C21264B4143CE18A1
:10EC3000317A002901D0082070BD002A02D0002DB1
:10EC400002D004E0072070BD1F49C00045183260A3
:10EC5000686870600020034606E08100FF3122688A
:10EC600041315350401CC0B261798142F5D82068CF
:10EC7000E978000B40B2FFF7C3FC052021680002D1
:10EC800009186A784B68D2075B085B00D20F134300
:10EC90004B602268A9781218936889079B089B002B
:10ECA000890F0B43936021682A78081801691207BD
:10ECB00009090901120F114301610120307200207E
:10ECC00070BD0000682C0020680E020010B50346DD
:10ECD0000068C103C90E012088400D490860196809
:10ECE0000020FF31C043FF3102310A6800240C606C
:10ECF000032219681202891888601846FFF75EFF20
:10ED000018790C21484303494018047210BD0000D3
:10ED100080E100E0682C0020017928225143054A57
:10ED20000068891805221302C018026002202031F1
:10ED300088707047802C0020F8B507460C46007993
:10ED400028211D4D41434D192E462036B17800290A
:10ED500001D00820F8BD002C02D118490001441848
:10ED60000CC5002028607071307121463846083D7E
:10ED700001F0E0FA2068124982001248121811606E
:10ED80006268920010180160052338681B0206CCE7
:10ED9000C0188160C260216841622868083C002870
:10EDA00005D03868217B000B40B2FFF729FC012019
:10EDB000B0700020F8BD0000802C0020780E02000A
:10EDC0000C0600000007005070B50D46017928239D
:10EDD0005943064BCC18910701D0062070BD13464D
:10EDE00001682A46204601F035FC70BD802C0020C9
:10EDF000F3B52A4C0746E07E81B0002801D00820F8
:10EE0000FEBD002F00D1264F0126387831468140C3
:10EE100024488160386800F06BF90021786800F0C0
:10EE20005EF9214DB8696862787D397D0843E866EE
:10EE300003CFE8606961387B083F01280FD10021CA
:10EE4000B86800F04CF9387B314681401548816044
:10EE5000F86800F04DF9F968B868A960286102986F
:10EE600060603969216000280ED0FF230F481D33F0
:10EE7000397F0022C250FF234533C2500D4A0C484F
:10EE800050600220FFF7BCFB042028600020E075E2
:10EE90002076A075E676A076FEBD0000742B0020DB
:10EEA000480E0200000500500025004000200040F0
:10EEB0008000020000230040F8B5104B81245E68FA
:10EEC0000022A4000E4D002E00D0AC60DF7D002F8C
:10EED0000BD01A7E002A04D0002E00D06C601120C6
:10EEE000F8BD18610122197604E0D9750024D860B4
:10EEF0005C761C7600F012F8F8BD0000742B002040
:10EF00000023004010B5044CA07E002803D100F07F
:10EF1000E5FE0120A07610BD742B0020F8B5234D2E
:10EF2000A87E104301D100F0D9FE6868204C00286B
:10EF300005D081201F49800048600020F8BDFF20D7
:10EF4000453000212150FF212531204600F011F9E4
:10EF50000546FF210931204600F00BF90746FF2145
:10EF60004531204600F005F906463946314329432C
:10EF7000E9D02846304306D100F086FE0B48C17D1B
:10EF8000407E8142DFD800210848002DC17501D0A4
:10EF90000320F8BD002E01D00F20F8BD817E012096
:10EFA000002901D02060C8E76060C6E7742B00200C
:10EFB000002000400023004010B5034600F048F850
:10EFC000002801D0112010BD034A002091759360E4
:10EFD000908200F003F810BD742B0020F8B50026D5
:10EFE000194FFF251D357E510120B86001F078FBD7
:10EFF000164C6168002910D022E0FF27013729460E
:10F00000114800F0B6F8002802D1A08AB842F6D123
:10F01000A08AB84201D001F063FBA08AA17D88429A
:10F02000EBD3A18AC81FF9380CD0074F29463846C0
:10F0300000F09FF80028F9D00120F8600020A075AA
:10F040003046F8BD0F26F9E700200040742B002061
:10F050000248807D002800D001207047742B0020DA
:10F0600030B552000A439900039C0A432102049DD3
:10F070000A4329040A43024980004018026030BD57
:10F080000007005030B552000A439900039C0A4320
:10F090002102049D0A4329040A43024980004018C2
:10F0A000026030BD0007005030B552000A4399009D
:10F0B000039C0A432102049D0A4329040A4302498E
:10F0C00080004018026030BD000700501CB50021D0
:10F0D00000910B4601220191FFF7D4FF1CBD1CB526
:10F0E00000220B46009211460192FFF7DDFF1CBD86
:10F0F0001CB5002100910B46012201911146FFF73A
:10F10000D3FF1CBD820006481018026803231B04AD
:10F110009A430260026809040A43026070470000D3
:10F1200000070050012181400148C1607047000084
:10F1300000050050012181400148816070470000B6
:10F1400000050050012181400148816070470000A6
:10F1500000050050034940180068012800D0002035
:10F1600070470000006000404058002800D0012097
:10F1700070474058002800D0012070470322120237
:10F1800080184068084000D00120704704490028DA
:10F1900003D0032803D1022000E005204871704706
:10F1A0008020002010B502881049102A10D0112AA2
:10F1B00012D00846408A132A13D0522A07D10023BE
:10F1C0001A461946A9DF002801D0FCF70DFE10BD34
:10F1D00003224A71808802E002204871C01E4882E2
:10F1E00010BD00231A4685217FDFECE78020002038
:10F1F00010B50078002807D104483B21408A76DF0B
:10F20000002801D0FCF7F0FD10BD00008020002098
:10F21000F8B58B1DCA88048A1231A24202D1C46C8F
:10F22000002C2BD1848900250126A24210D15989B6
:10F2300002290CD10268002A09D0597B1B7B0902E4
:10F240001943C907C90F69461BD00D709047F8BD17
:10F25000048CA24202D1046D002C0FD1048EA24274
:10F2600002D1446D002C09D1848DA242DFD040240C
:10F27000245AA242EBD1846D002CE8D05A89A047D1
:10F28000F8BD0E70E2E70000074A904201D107483E
:10F2900003E0074A904202D10648C1607047064A1F
:10F2A0009042FBD10548F8E700800040008C004008
:10F2B00000900040009C004000A0004000AC0040D6
:10F2C000F8B50D46144614211A48FBF77EFF0020BE
:10F2D000184F02E0295C3954401CA042FAD3387818
:10F2E00000260125144C0300FCF7C3FB050406109F
:10F2F000151C05002670F8BD0D20FFF71BFF787860
:10F300006421081AA08265702570F8BD0D20FFF7F2
:10F3100011FF02200CE00D20FFF70CFFA6826570A4
:10F32000032005E00D20FFF705FFA682657004208D
:10F330002070F8BD0823002080200020002000E07D
:10F34000401C9042FCD37047002000E0401C9042DB
:10F35000FCD370470021425C002A01D00120704795
:10F36000491C0629F7D300207047000004490818FB
:10F3700020214156042901D2012070470020704706
:10F380002C2B002010B5134CA07A00281FD0401C55
:10F39000A0720920FFF7CEFE0820FFF7C3FEA07A77
:10F3A0001E2813D30020A0720920FFF7BBFE0820FF
:10F3B000FFF7B8FE0D20FFF7B5FE0E20FFF7B2FEF7
:10F3C0000548FCF787FFFEF795F83CDF10BD0120EC
:10F3D000A07210BD80200020A80C02000749097906
:10F3E000490701D408207047002804D0044949780F
:10F3F0000160002070470E2070470000A02100200F
:10F40000902B002070B58EB005461C216846FBF796
:10F41000DCFE684601780E20014368460170002436
:10F4200001940394049405940694297808A88170A3
:10F43000174968460184601C0107090F68461031AE
:10F440000794017701200146684610314177817F9A
:10F45000F9200140F720891C0140EF2001400126DE
:10F46000314368468177142109A8FBF7AEFE08A84E
:10F47000099007A80A90684686851421C4850186EC
:10F4800068882B1D09AA6946A2DF0EB070BD000076
:10F4900022AA000010B5394C2078002804D164203D
:10F4A000A0820D20FFF73EFE2078022837D1E08AA7
:10F4B000FCF728F8324A334BFBF744FF0022324B6B
:10F4C000FBF7A8FFE163A063E36EA26EFCF75AF8B6
:10F4D00008D2E36BA26BE16CA06CFBF733FFE36D2A
:10F4E000A26D17E0636F226FE16BA06BFCF74AF827
:10F4F00008D2E36EA26EE16BA06BFCF72FF801D28D
:10F5000055200BE0E36BA26B616D206DFBF71AFFDA
:10F51000636E226EFBF764FEFCF702F8A08222788D
:10F5200000200121032A02D0042A0FD01EE06278B5
:10F53000002A06D0A28A521C92B2A282642A15D155
:10F540006070A08A401E0DE061700FE06278002AB2
:10F5500006D0A28A323292B2A282642A06D16070A8
:10F56000A08A32380004000CA082EDD0A28A0021CB
:10F570000648FCF78DFC1128F8D010BD8020002033
:10F58000CDCCCCCCCCCC0C4000E06F40A80C020021
:10F5900070B58EB005461C216846FBF716FE68461E
:10F5A00001780E2001436846017000240194039401
:10F5B000049405940694297808A881701749684630
:10F5C0000184601C0107090F684610310794017718
:10F5D00001200146684610314177817FF9200140C2
:10F5E000F720891C0140EF20014001263143684685
:10F5F0008177142109A8FBF7E8FD08A8099007A85E
:10F600000A90684686851421C48501862B46688841
:10F610000C3309AA6946A2DF0EB070BD23AA000010
:10F6200070B58EB005461C216846FBF7CEFD6846D6
:10F6300001780E2001436846017000240194039470
:10F64000049405940694297808A88170174968469F
:10F650000184601C0107090F684610310794017787
:10F6600001200146684610314177817FF920014031
:10F67000F720891C0140EF200140012631436846F4
:10F680008177142109A8FBF7A0FD08A8099007A815
:10F690000A90684686851421C48501866B1868889F
:10F6A00009AA6946A2DF0EB070BD000024AA0000BE
:10F6B00010B500680C2251430C18207AFFF70CF9A2
:10F6C000607AFFF709F910BDF1B582B00298002405
:10F6D000056828192030007BFF2801D0FFF734F996
:10F6E000641CE4B2022CF4D32E20405DFF2801D02C
:10F6F000FFF7E8F9002420460C214843002647196B
:10F700000090B8190190007AFF2804D0FFF71CF987
:10F710000199FF200872761CF6B2022EF1D30098F0
:10F720002858411C05D0FFF761F800210098C94313
:10F7300029500020641CE4B2F872032CDBD3029839
:10F740004068FFF7C3FAFEBD10B504682034207B83
:10F75000FFF7C2F8607BFFF7BFF810BD0149012039
:10F760000874704780200020F8B50D461348490002
:10F770000127002469180E18305D002806D0305D7E
:10F78000401E3055305D00280FD00027641CE4B2C5
:10F79000032CF1D3002F07D00848A9000E304058A1
:10F7A00002214068FFF7EFF9F8BD0448A9000E30C8
:10F7B00040580068816A28468847E7E7EE21002024
:10F7C000FEB50C4601680546009120460C214843D1
:10F7D00000990190471816462846FFF7B5FF2146C5
:10F7E0002846FFF765FF01980A30002E09D00099DE
:10F7F000496AB1420FD88EB22968085C002804D04B
:10F8000005E02968085C002801D0002100E0012102
:10F810003868FEF7D5FF0023324621466868FFF7B7
:10F8200096F97E606968024A0979FF205054FEBD4E
:10F83000EC210020F7B582B00446056803980C213E
:10F84000484347192035AE7B039800902046FFF7C8
:10F850007BFF20460399FFF72BFF00236068049A83
:10F860000099FFF774F931463348FFF7B7F8397A52
:10F87000012002468A40797A884010433146FFF7DA
:10F8800083F879682D48002934D0F1000E18022140
:10F890006068FFF771F90146287B3246FEF7FCFFEE
:10F8A0000023012203216068FFF751F960680021FD
:10F8B000007982002248815003216068FFF73DF9FA
:10F8C000064602216068FFF757F90146687B324619
:10F8D000FEF7E2FF287BFFF71BF8687BFFF718F8BD
:10F8E000049878606168164A03200979083A5054F0
:10F8F00005B0F0BDF1000E1860680399FFF73CF900
:10F900000146287B3246FEF7C7FF00231A46032133
:10F910006068FFF71CF960680399FFF707F96168F1
:10F9200009798A000649885003216068FFF705F9C4
:10F93000064660680399C6E7FF3F000000F00140FB
:10F94000F4210020F7B5076882B0044603980C2123
:10F950004843C2193D4620350092AE7B2046FFF752
:10F96000F3FE31463648FFF739F8009A0121127A42
:10F9700008469040009A527A914008433146FFF77A
:10F9800003F804992F48002938D0B98C89B2049122
:10F99000F1000E1802216068FFF7EEF80146287B9F
:10F9A0003246FEF779FF0023012203216068FFF74A
:10F9B000CEF860680021007982002348815003213D
:10F9C0006068FFF7BAF8064602216068FFF7D4F8CE
:10F9D0000146687B3246FEF75FFF287BFEF798FF03
:10F9E000687BFEF795FF0099049848606168164AA5
:10F9F00003200979083A505405B0F0BDF1000E1803
:10FA000060680399FFF7B8F80146287B3246FEF795
:10FA100043FF00231A4603216068FFF798F86068E7
:10FA20000399FFF783F8616809798A0006498850CD
:10FA300003216068FFF781F8064660680399C5E70F
:10FA4000FF3F000004F00140F4210020F7B582B030
:10FA50000546046803980C21484307192034A67B07
:10FA60002846FFF771FE31462B48FEF7B7FF227B91
:10FA7000012108469040627B914008433146FEF7E1
:10FA800083FF68680399FFF758F8009003216868BE
:10FA9000FFF772F80146207B009AFEF7FDFE6868CA
:10FAA000052100680902401800690006000E13D005
:10FAB000002104980818796888420FD23868FEF748
:10FAC0004DFE009003216868FFF756F80146607B01
:10FAD000009AFEF7E1FE07E00121EAE7627B0120E0
:10FAE00031469040FEF77AFF0498786000236868FA
:10FAF0000321049AFFF72BF83046FEF7CBFF696825
:10FB0000064A097904988900505069680398097970
:10FB1000083A505405B0F0BDFF3F0000F42100202A
:10FB20002348014602782A310A7042784A70827866
:10FB30008A70C278CA7002790A7142794A718279F0
:10FB400014310A70C2794A70027A8A70427ACA7095
:10FB5000827A0A71C27A4A71027B8A71427BCA71C7
:10FB6000827B0A72C27B4A72027C8A72427CCA72AF
:10FB7000827C0A73C27C4A73027D8A73427DCA7397
:10FB8000827D0A74C27D4A74427E14310A70827E7C
:10FB90004A70C27E8A70027FCA70427F0A71827F79
:10FBA0004A71C07F8871084632380078C871704742
:10FBB000D42800202148224902780A7042784A70ED
:10FBC00082788A70C278CA7002790A7142794A7161
:10FBD0008279891D0A70C2794A70027A8A70427AE3
:10FBE000CA70827A0A71C27A4A71027B891D0A70D0
:10FBF000427B4A70827B8A70C27BCA70027C0A7127
:10FC0000427C4A71827C14310A70C27C4A70027D47
:10FC10008A70427DCA70827D0A71C27D4A71027EFD
:10FC20008A71427ECA71827E24390A70C27E4A700D
:10FC3000027F8A70407FC87070470000D42800207F
:10FC4000A020002070B501240B49600408600B4916
:10FC500040108860094940398860094D6C602F2048
:10FC6000FBF758FAAC60074D00242F202C61FBF7FE
:10FC700051FAEC7070BD000080E100E040130140DB
:10FC800000100140CC21002030B50A48FF21C57D7D
:10FC90000022094C0931094B002D625007D09969A7
:10FCA000437EC268D154417E491C417630BD98697B
:10FCB00030BD0000742B00200020004000250040D3
:10FCC0001FB501236A46137010720348019106C8DC
:10FCD000684690471FBD0000742B0020FF22054896
:10FCE000253200218150FF2209328150012101601B
:10FCF000704700000020004008B502490020009134
:10FD000008BD00008020002010B50121202805DA60
:10FD10001A4A8140114201D1194810BD8107C90E0C
:10FD2000002808DA0207120F083A9208154B9200D1
:10FD3000D218D26904E08208134B9200D2181268DC
:10FD4000CA401106890F042911D200290FD00229B7
:10FD50000DD00E494C68C306DB0E01229A40002CE0
:10FD600008D0400980000B5813430B5004E00448AE
:10FD7000401C10BD06480260002010BDFC06FFBC00
:10FD80000120000000ED00E000E400E0202200205F
:10FD900000E100E070B5104C0125A079002810D0DA
:10FDA000401CA071C0070BD1E079002600280AD0C2
:10FDB0000820FFF7B7F90920FFF7BCF9E671A67133
:10FDC00070BDA57170BD0920FFF7ACF90820FFF7E1
:10FDD000B1F9E571F3E700008020002010B5124969
:10FDE0001248FCF7A3FB002801D0FBF7FDFF0F4CE6
:10FDF000803CA078002806D023462C339A1F911F00
:10FE00000B48FDF741FAE078002804D0074908487C
:10FE10004039FDF747F92079002804D00349044808
:10FE20006439FDF7E7F910BDB00C02000021002095
:10FE300078280020FFB50746806A81B01446002864
:10FE40003DD0002538462030009033E00C20B96AC0
:10FE500068430E18B088801CFE2802D90C2005B01B
:10FE6000F0BD22880299401C885420881622401C2C
:10FE700080B2208002990A542088401C80B22080E1
:10FE800002994118308800F061FD2188401880B245
:10FE90002080B288002A0AD0B16800290FD0029BC6
:10FEA000C018FBF779F92088B188401820806D1CB4
:10FEB0000098EDB2007BA842C8D80020CFE7072009
:10FEC000CDE7000010B58EB0142105A8FBF77DF931
:10FED000234805902348069023480790234808901C
:10FEE00005A92348FDF716F9200001D0FBF77CFF98
:10FEF00020480A9020480B9020480C901C48002471
:10FF00000AA94438FDF70CFA002801D0FBF76CFF72
:10FF100014216846FBF759F9012001466846103163
:10FF2000417301200146684610318173002001466B
:10FF30006846C173012001466846103101740121F1
:10FF400000940171642102940173094869461838CC
:10FF5000FCF744FF002801D0FBF746FF0EB010BDB0
:10FF60004DDB01007DDA010015DA010079DA0100CC
:10FF700078280020C1F201003DF3010049F301009F
:10FF80000B46C1680968002905D0C168C068496886
:10FF90000268184610477047002803D00249C8601D
:10FFA000002070470E2070470C2200201CB503492A
:10FFB00001910091694660DF1CBD00008020002097
:10FFC00070B50E460546144614211046FBF7FDF8A1
:10FFD0000220208000202061207326726572002D8F
:10FFE00001D00120A072002070BD10B5FBF7EEFE1D
:10FFF00010BD000070B5002901D08C0701D007208A
:020000040002F8
:1000000070BD074C0125A16062800649636010DF66
:100010000028F5D125701620FFF776FE70BD000090
:100020000C220020EBFF0100F8B50E460446002527
:1000300068460570FCF712FB002E02D1E06800282C
:1000400022D16079A179814201D1294609E0216854
:1000500082008958401C2279C0B2824200D200201E
:100060006071E160E06800280ED068460078FCF717
:1000700013FB2572204600F00CF8010008D0204642
:10008000FFF77EFF0126D3E768460078FCF704FB04
:10009000F8BD3EB5037AC168DA0089686D468918F3
:1000A0004C7964086C700C6801940C79AC708C7994
:1000B000E4072AD04C79E50727D1C5685B1C2D7B66
:1000C0009D4222D9C36864089D6813460D33EB5CDA
:1000D0005B08A34219D1C168083289686B46891848
:1000E0000A6802920A79DA704A79D20701D00222AC
:1000F00000E003221A708979C90701D0202200E0AC
:100100000022017A491C01720DE04A796B46D20740
:10011000D20F1A7000220292DA708979C90701D0D1
:10012000202200E0002219461030FEF74DFE3EBDB1
:10013000034803494079800098310858004700007F
:100140008020002010B5FFF7F3FF10BD70470000BE
:10015000FEB51F4C00252769E06802906846FDF750
:10016000D3FB0190FDF7FEFE06460198002822D041
:1001700000230098E16817E00E680A46864202D91B
:10018000301A086012E0801BF31800261660D6684B
:10019000D169B446002E07D0FE183602360A5660E2
:1001A00066469660D56115460029E5D12846E1608E
:1001B000FDF736FF06E02846FDF732FF002801D1A3
:1001C000002E02D00298FDF787FA00202071FEBDB4
:1001D000CC21002001200249000508607047000082
:1001E00000E200E010B50E4BD968002906D0026885
:1001F0000C68A24204D8A21A0A60C161D86010BD7E
:100200000B4604E00B46C969121B002904D00C6898
:100210009442F7D3A41A0C600260C161D86110BD8A
:10022000CC210020F8B51D4DEC68002C34D01C48C2
:10023000002740682969401A0602360A2068B04241
:1002400018D8361AC7192246107CE46900280FD046
:10025000002010746B69002B07D091695069984792
:10026000002805D0FBF7C0FD02E05169906988477E
:10027000002CE3D16978A878814206D1401CC0B235
:10028000A870022801D10020A87004490006800D42
:1002900018310F50FFF79EFFF8BD0000CC21002061
:1002A0000015014010B500231B4A08211846FCF731
:1002B0003DF8002801D0FBF797FD184A01211848A6
:1002C000FCF71EF8002801D0FBF78EFD1448154AF4
:1002D0000121001DFCF714F8002801D0FBF784FD74
:1002E0000F48114A01210830FCF70AF8002801D014
:1002F000FBF77AFD0A480D4A01210C30FCF700F8A3
:10030000002801D0FBF770FD0548094A0121103093
:10031000FBF7F6FF10BD00007823002095F40100E4
:10032000900C0200DDFD010059BB010045010200F7
:10033000E5D50100F8B50C460968224D8900204832
:100340004919086061688900491908602068FEF74A
:10035000F9FE6068FEF7F6FE19482168401C890026
:100360004919086061688900491908600420FAF792
:10037000C1FE0025144F012620793969C140C80704
:10038000C00F02D0002D19D00FE0207831468140F7
:10039000F9600420FAF7AEFE2068FEF7D3FE0420D1
:1003A000FAF7A8FE6D1C092DE6DB20798640FE6079
:1003B0000420FAF79FFE6068FEF7C4FEF8BD000057
:1003C0000C060000000700500005005010B5007832
:1003D0000C46002808D003212046FFF7D1FD01215B
:1003E0002046FFF721FE10BD207A0021401CE26864
:1003F000C0B2127B8242EFD920722046FFF749FE3D
:100400000100E9D110BD0000FFB50027FF2285B033
:100410000C4605321E46A750FF222532A750FF2268
:100420001D32A750FF220932A75005462035CA1DAC
:10043000FF32AF71FA32EF70012B0FD0012313603E
:100440000122226222600268002A09D010498160DC
:100450008068032109026118486015E00223EEE775
:10046000014626312330039102900020019000962E
:100470002046079B039A029900F023F80028F4D144
:10048000E878002800D00327384609B0F0BD000006
:100490008602000030B51C78039D944208D20522E4
:1004A0001202095D8018C1611878401C187006E0BE
:1004B0000121002D02D0C161002030BD4161012029
:1004C00030BDFFB50F46097881B00446012904D03C
:1004D000039802780A98824201D1012600E00026A2
:1004E000FF2025300025002907D02550FF201D3092
:1004F0002550FF200930255056E0FF2125312046A8
:10050000FEF732FE00282CD1FF211D312046FEF7D8
:100510002BFE002814D0FF201D302550FF2125314F
:100520002046FEF721FE00281BD10B9800902046A4
:10053000039B0A9A0499FFF7ADFF002840D033E0EF
:10054000FF2109312046FEF70FFE00282CD0FF20A6
:1005500009302550FF2125312046FEF705FE0028F1
:1005600006D0FF20253025500120606138701BE047
:1005700003990A980F78049ABC46874214D205233F
:100580001B02E3189B696746D3550A78521CD2B206
:100590000A70411E8A4203D102200102085101E083
:1005A000824201D001212162002E0BD0FF260536A8
:1005B00031462046FEF7D8FD002803D0A551002083
:1005C00005B0F0BD0120FBE7FFB5054687B00C463E
:1005D0000020FF21109F053105906050FF2125313B
:1005E0006050FF211D316050FF2109316050012111
:1005F00049022E4608512036B071F0700120206269
:10060000A060B31D0097029320460A9A0999FFF74C
:1006100041FF2868002807D00D48A860A86803217A
:1006200009026118486010E023350A98009001978C
:1006300029462046099B029AFFF743FF0028F4D180
:10064000F078002801D00320059005980BB0F0BD8C
:1006500086020000F8B5044600250320ED430002A1
:1006600008188560254620352E79002E03D0A16814
:1006700041601120F8BD5807C017401C28711807A9
:1006800001D50620F8BDA361C1CA0C34C1C40C3A1F
:100690009078287050680B266060F60150788E19AB
:1006A000B06010780026183C01280ED0002801D137
:1006B000980601D5012000E0002068700090937832
:1006C00052682046FFF780FF05E06E70937852680D
:1006D0002046FFF799FE21680029D3D12E71F8BD7D
:1006E000FF2107481D31002242500648828A816856
:1006F000895C828A521C82820348C1617047000073
:1007000000200040742B0020002500401FB5002170
:100710006A4611701072044882680192817506C899
:10072000684690471FBD0000742B002070B501780B
:10073000002907D0012901D0022902D14068FBF726
:1007400053FB70BD0A4C094DE07B2818FBF71CFFDA
:10075000E07B401CC0B22918E0732039C97F0A2908
:1007600001D01428EDD30020E07370BD6423002075
:10077000802000207CB50178284D01290AD002296B
:100780002FD000292CD129462548FBF739FB00281A
:1007900033D036E04068017821481038FBF74DFB34
:1007A0001F4C103C002805D001216A4611700190B1
:1007B000684608E0A068E168081A012805D1002011
:1007C00069460870684669688847A068E168081A41
:1007D000A188884204D811480121401CFEF76CFB17
:1007E0007CBD02216A461170C06801900B4801214E
:1007F000401CFEF761FB68460CE001210748FEF74C
:10080000DBFB07488168C0688842E9D1032069465C
:1008100008706846696888477CBD00009821002000
:100820001C2B0020F0B5454D012185B0490228461A
:10083000FEF7A4FC01270026414C002824D0FF210C
:1008400025312846FEF795FC00281DD0FF202530D5
:100850002E5081203B4980008860A07E002800D176
:100860006F6002216846017037490868086003908C
:10087000E17D68460172E0680190E675267606CC57
:100880006846083C90472BE004212846FEF776FC9A
:10089000002825D0FF2109312846FEF76AFC0028F0
:1008A0001ED0FFF7F1F9E07D617E884218D1207EED
:1008B000002808D0627EE168E0752069E060267655
:1008C000667610460AE0A07E002800D16F60812085
:1008D0001C4980008860E675607EE168FFF7F0F9EA
:1008E000FF211D312846FEF744FC00280DD0A18AC7
:1008F000A07D814202D2FFF7F3FE06E0FF211D3109
:100900006E50002801D0FFF701FFFF214531284636
:10091000FEF72FFC00280ED0FF2045302E50A07E81
:10092000002800D02F60E07D002804D0E675607EAE
:10093000E168FFF7C5F905B0F0BD000000200040F8
:10094000742B002000230040802400400870000A1F
:10095000487002207047000038B51549154A48888C
:1009600090420FD04A78144C521CD2B24A70237B6A
:10097000934208D3091D75DF002803D0A16900291F
:1009800000D0884738BD00254D70217C002907D054
:100990003B2176DF002803D0A169002900D08847D9
:1009A00061690029EED068460570884738BD0000AF
:1009B00084210020FFFF0000F02A0020EFF30580D3
:1009C000C005C00D1AD0103840B2002808DA01075F
:1009D000090F083989080C4A89008918C96904E097
:1009E00081080A4A8900891809688007C00EC14039
:1009F0000806800F012803D0032803D00220704787
:100A0000002070470120704700ED00E000E400E0A6
:100A100042788378521CD2B2934200D100220378EC
:100A2000934201D1002070470A7041684078182233
:100A3000504308187047FFB583B016460C9D0D9CB7
:100A40001F46022200950194039800F00CF800283C
:100A500007D13B461022314600950194039800F0DF
:100A600002F807B0F0BDFFB583B0074600200C9C2C
:100A70008646268805463AE07868A900421811881B
:100A8000684681805188C1800022694601A865DFDF
:100A9000002839D1684601780598814226D17046F0
:100AA000002801D0002200E0022220888918421884
:100AB0000D998A4227D8714600290AD1401C80B27C
:100AC0002080069A049911542088401C208001201F
