:020000040001F9
:10B000000832002035B101004FB1010051B10100FB
:10B010000000000000000000000000000000000030
:10B0200000000000000000000000000053B101001B
:10B03000000000000000000055B1010057B1010000
:10B0400059B1010059B1010081B9010075B8010081
:10B0500059B1010000000000BDB6010095B6010025
:10B0600051B9010069B9010059B1010059B101009C
:10B0700059B1010059B1010059B1010059B10100A4
:10B0800059B1010055B8010059B1010059B1010091
:10B0900089B8010059B1010091B8010059B101000E
:10B0A00059B1010059B1010000000000000000008A
:10B0B0000000000000000000000000000000000090
:10B0C0000348854600F098FA0048004729D8010057
:10B0D00008320020401E00BF00BF00BF00BF00BFFD
:10B0E00000BF00BF00BF00BF00BF00BF00BFF1D165
:10B0F00070470000401E00BF00BF00BF00BF00BF80
:10B1000000BF00BF00BF00BF00BF00BF00BFF1D144
:10B1100070470000401E00BF00BF00BF00BF00BF5F
:10B1200000BF00BF00BF00BF00BF00BF00BFF1D124
:10B13000704700000321094802680A43026008487A
:10B1400002680A4302600748804707480047FEE755
:10B15000FEE7FEE7FEE7FEE7FEE70000240500400D
:10B1600054050040B1B80100C1B0010003460B43D3
:10B170009B0703D009E008C9121F08C0042AFAD2AD
:10B1800003E00B780370401C491C521EF9D2704733
:10B19000D2B201E00270401C491EFBD2704700226F
:10B1A000F6E710B513460A4604461946FFF7F0FFC6
:10B1B000204610BDF0B507460846584087B0C00F7E
:10B1C000049048000E46590040084908BC1A8841BE
:10B1D00005D2384631461E4617460B4602465800F1
:10B1E000400810434CD0300D039040055900400DED
:10B1F000490D0590401A0290402872DA1803012187
:10B20000000B09050843019004980092002805D01E
:10B2100001995242002088410092019002984021F9
:10B220000A1A0199009800F065F905460C466B462C
:10B2300007CB00F06FF9C0197141039A0E0D00237E
:10B24000D71756401A467A40164344D0049A002A2B
:10B250002DD0029A012A039A15DC1205C01A9141D9
:10B2600001263605001C7141D20F059ED2070093BE
:10B27000019202962A46234600F06CF907B0F0BD11
:10B2800038463146FAE71605224A0F46B218C01A68
:10B29000B74101210905001C4F4100187F411146AB
:10B2A00018187941E20F10436D19644113E0E20769
:10B2B0006D0815436408C2071443039A012612055A
:10B2C000C01A91413605001C7141CE074008304339
:10B2D0004908C01851412A46234600F02EF9CDE70F
:10B2E000FFE7049801224000C117121A00238B4186
:10B2F00004983146C417381AA141EEE730B401244E
:10B30000E407634030BC55E730B40124E4076140F2
:10B3100030BC4FE70000E0FFF0B51FB488B00B99D8
:10B320000998002448400999C00F4900490809912B
:10B33000C0070B990090490049080B91099908989A
:10B34000A64608431CD00B990A98084318D00998C0
:10B3500001244000420D4800410D099824050003D6
:10B36000000B204309900B980003000B20430B9027
:10B3700050181C494018002201901446104605E060
:10B38000002001460DB0F0BD032801DA034600E0BD
:10B3900003239C46C11A0AAE0AE05F0008ADED5BCC
:10B3A0004F00F75B7D430027AA187C41491C5B1EB8
:10B3B0006145F2DD410004AB5A522104120C0A43EC
:10B3C000240C401C0828DFDB01980290009970468D
:10B3D00001910090059B049A0799069800F0BAF82D
:10B3E000D0E700000DFCFFFFF0B50C465C4085B0D7
:10B3F000E40FE40703944C000026640859009446C7
:10B40000490802460296224321D062460A431ED0D2
:10B410006200570D4A000E032303550D0124024616
:10B420002C492405781B1B0B360B4018234326435D
:10B43000614600901C46501AB44103D30098401C4A
:10B44000009002E0921800985B41002803DA002087
:10B45000014605B0F0BD00200121090507468646DA
:10B4600011E064461D46141BB54106D36546521BC8
:10B47000B341744607430C43A646CD07400849082C
:10B48000284392185B4105460D43EAD11046184304
:10B4900013D06046194650407140084306D06046BC
:10B4A000101AB34106D20122002306E00022012334
:10B4B000DB0702E00122D2435310009874460105D5
:10B4C000381C6141029C039D0019694100F035F868
:10B4D000BFE70000FD0300000EB505490291002101
:10B4E00000910A460B46019100F034F803B000BD0C
:10B4F0003304000010B5202A04DB0146203A9140B5
:10B50000002010BD914020239C1A0346E3401943BC
:10B51000904010BD10B5202A06DBCB170846203A14
:10B520001041C1170B4306E00B461341D0402024C5
:10B53000A21A91400843194610BD10B5002B08DA35
:10B540000024401C614192185B411A4301D140081C
:10B55000400010BDF0B51FB482B005460C0003D00A
:10B56000084600F011FA02E000F00EFA2030024620
:10B57000009021462846FFF7BDFF049B059A04462C
:10B580000F4618431143084314D0184610431BD0EC
:10B59000009840210A1A1846059900F03FF8054620
:10B5A0000E46009A05990498FFF7A4FF084305D0BA
:10B5B000012004E02046394607B0F0BD0020C11745
:10B5C00005430E432C43374300990E986305401AF8
:10B5D0007905E40A00220C43FD0A0A3002D5002056
:10B5E0000146E9E70105101969410C9C0D9D001900
:10B5F0006941FFF7A2FFDFE7064C0125064E05E093
:10B60000E36807CC2B430C3C98471034B442F7D383
:10B61000FFF75AFD08F2010028F2010010B5202AB8
:10B6200004DB0846203AD040002110BD0B46D34031
:10B63000D0402024A21A91400843194610BD70B58D
:10B640008C180578401C6B075B0F01D10378401CF8
:10B650002A1106D10278401C03E006780E70401CC7
:10B66000491C5B1EF9D12B0705D40023521E0DD4B3
:10B670000B70491CFAE70378401CCB1A921C03E0BC
:10B680001D780D70491C5B1C521EF9D5A142D8D300
:10B69000002070BD05490020086005488068054904
:10B6A00008820549012048604ADF70470071004068
:10B6B000007500408020002000700040F0B500259B
:10B6C000FF248BB0013401262F460195204602F05D
:10B6D000D3FB002808D047484068304204D0464891
:10B6E0000021201835430160241D76007F1CA4B280
:10B6F000042FEBD3FF207D3002F0BEFB002807D0E3
:10B700003E4800210160400705433D480069019023
:10B710003C4C280712D0012700262F420AD03A4875
:10B72000B200111808690969C004C00E8903A25843
:10B73000890F90477F00761C042EEED3002D57DA38
:10B7400000200590401E4DE0A11940310878850683
:10B75000AD0E42B2521C39D00121A940089A009185
:10B76000114233D080090390284601F08DFB800000
:10B7700020580490002802D10398032826D103986A
:10B780000099032802D10598084305901F4AA80094
:10B7900080180068019A8003800F114202D00228AD
:10B7A00002D013E0032811D10399032907D10228FD
:10B7B0001CD00221284602F037FB7F1CFFB2049800
:10B7C000002803D0049A284603999047761C042E3B
:10B7D000BAD3002F0CD00A4800690199884207D0DB
:10B7E0000190059800273E460890ADE70321E1E768
:10B7F0000BB0F0BD00630040006000407C61004081
:10B80000000500503028002000650040000700506F
:10B810008307FF22DB0E9A408907090E9940002812
:10B820000BDA0007000F0838830808489B00181837
:10B83000C36993430B43C3617047830804489B006B
:10B840001B181868904308431860704700ED00E02B
:10B8500000E400E010B506490020086048608860F8
:10B86000C860034940390860486002F041FF10BDDC
:10B870004011014010B50249024801F0ABFD10BD76
:10B88000842900200030004010B502F0C7FE10BD32
:10B8900010B506484068002805D08047002801D030
:10B8A00000F036FA10BD01F035FD10BDD4210020A6
:10B8B00010B501F0F3FD002805D01F491D48486070
:10B8C000C8131E4988611E48018CC9B201290BD1D9
:10B8D000828C120708D1028D1206120F042A03D19E
:10B8E000828D1206120F0AD0012921D1818C0907FD
:10B8F0001ED1018D0906090F0A2904D007E0114A5B
:10B9000001219160F5E7828D1206120F05D00D29F5
:10B910000ED1808D0006000F0AD10B480168012965
:10B9200004D00A49016001680129FCD1C0214161AC
:10B9300010BD0000DFFF07C000050040006C0040A4
:10B94000C00F00F00006004000EC064075930000B8
:10B9500010B504220249034801F01CFD10BD00008F
:10B960006C2900200080004010B5042202490348E1
:10B9700001F010FD10BD000078290020009000406B
:10B9800010B503F02DF910BD2021020C01D01021BB
:10B990001046020A01D010460839020901D01046AB
:10B9A000091F820801D01046891E420801D0881E56
:10B9B0007047081A704702E008C8121F08C1002A21
:10B9C000FAD170477047002001E001C1121F002A20
:10B9D000FBD17047202804DA01218140034801424D
:10B9E00001D001207047002070470000FC06FFBC1A
:10B9F000042805D2002803D0022801D00120704776
:10BA00000020704770B518480125456007200326BF
:10BA1000FFF7E0FF154C00280AD03046FFF7E8FF9B
:10BA2000002805D020680002000AB1070843206002
:10BA30000720FFF7CFFF002810D02068800FFFF706
:10BA4000D7FF00280AD00A4842688021002A03D084
:10BA500002680A43026001E006480160074806499F
:10BA60004160056070BD00000073004004E400E028
:10BA7000E821002000E100E0080800000075004017
:10BA800008B50020009049DF01E068464BDF0098D0
:10BA90000028FAD001490120086008BD007000406C
:10BAA000F7B584B00025168807461580406B14460C
:10BAB000002813D003780598032E51D3022101707A
:10BAC00021881122491C89B2218042542188491CB5
:10BAD00089B2218043542088401C2080386B002884
:10BAE0001DD005462088059902461232B24237D849
:10BAF00011220A5420881022401C80B220800A544F
:10BB00002088401C20800F202A5C2388401ECA54B5
:10BB1000228840B2521C22800028F5DA00253846DF
:10BB200020300290807B002806D0334622460599BB
:10BB300001F0D8FC050014D10298407B002806D003
:10BB400032462146059800F0A9FE050009D1B878D3
:10BB5000002823D0059886462088001DB04202D9CF
:10BB60000C2007B0F0BD684679DF0028F9D12188A4
:10BB700003207246505420881921401C80B2208036
:10BB8000115420887146401C80B2208041186846BC
:10BB9000008803F0B9F8218840182080F878002840
:10BBA00017D0218803230A46FB56C91C0598B142C9
:10BBB000D6D80221815421880122491C89B22180D2
:10BBC00042542188491C89B2218043542088401C5A
:10BBD00020807868002817D021880023C3560A46A1
:10BBE000C91C0598B142BBD80221815421880A2280
:10BBF000491C89B2218042542188491C89B2218084
:10BC000043542088401C2080388900280AD00094A2
:10BC100038460196062202210830059B03F0E9F818
:10BC200005009ED1388A00280AD000943846019633
:10BC3000072203211030059B03F0DBF8050090D1AB
:10BC4000388B00280AD0009438460196152214211A
:10BC50001830059B03F0CDF8050082D1386A002822
:10BC600006D033462246059901F06EF90500D8D179
:10BC7000786A002806D033462246059901F0E6FE90
:10BC80000500CED10298007B002807D0334622461B
:10BC90003846059902F048FB0500C2D138780028E3
:10BCA00007D0334622463846059901F0B1FF05001A
:10BCB000B7D1284655E710B501220221002001F036
:10BCC00085F8002801D0072812D10722022101207F
:10BCD00001F07CF8002801D0072809D100210A22B0
:10BCE000084601F073F8002801D0072800D1002091
:10BCF00010BD0000BFF34F8F04490348C860BFF375
:10BD00004F8F00BFFDE700000400FA0500ED00E0E2
:10BD10000EB50021029000916A4601910148FFF79B
:10BD2000E9FF0EBD01400000094B9B68002B07D0C6
:10BD3000002A07D0002805D00068037C002B03D020
:10BD40000820704707207047417442610020704707
:10BD5000AC210020FFB59007002581B014460E46A7
:10BD6000002832D11B4F002C31D002F0F3F9049897
:10BD700078610320387033461821224600204B4357
:10BD8000BC601834C10089180D704D708E704C6005
:10BD90001C19401C0328F5DBFD607D7001240E4852
:10BDA000BD702405046003211420FFF731FD0B480A
:10BDB00004600B4C0198A06003211120FFF728FDBF
:10BDC00060683861002005B0F0BD0720FBE7BD606A
:10BDD000FBE70000AC21002080E200E000E100E091
:10BDE00000150140FEB50D461B49174689680446FB
:10BDF00000292AD0002C28D0052D01D20720FEBD15
:10BE00006069002821D0607C012820D0002602F043
:10BE1000B3FFC0001049019089684018694602F0DC
:10BE2000D5FF002815D0012101700C4944604968F4
:10BE30000830E2C0084901988968411868460078CE
:10BE4000487002F02DFC0020FEBD0820FEBD2E46ED
:10BE5000DDE70420FEBD0000AC21002000150140FC
:10BE6000F8B5134D0446A96800291CD0002C1AD03F
:10BE70006069002817D00026267402F07DFFC700F5
:10BE8000A8686946381802F0A1FF00280DD00221E9
:10BE900001704460A868391868460078487002F05C
:10BEA000FFFB3046F8BD0820F8BD0420F8BD0000B7
:10BEB000AC210020F8B51D46044603461646103056
:10BEC000084A074601F042FF002809D1384601F030
:10BED0002DFF2560267100206071A0716072E06006
:10BEE000F8BD000081E80100F0B585B00F460446BA
:10BEF0000020694608701D461646684600F058F84E
:10BF0000607A002806D06846007800F06FF81120AB
:10BF100005B0F0BD012060726846007800F066F858
:10BF20000B496A460868C968039191C2684606735E
:10BF30006946204600F00EF80028E9D102E0002D05
:10BF400000D0A847607A0028F9D1A07AE0E7000085
:10BF5000B8F10100F8B50D460446002669460E709A
:10BF6000684600F025F8A0792179814202D16179F3
:10BF7000002903D06179491E814205D16846112606
:10BF8000007800F033F811E0216882008D50401CE9
:10BF90002179C0B2814200D20020A07168460078A9
:10BFA00000F024F80021204602F0A4FA3046F8BD43
:10BFB00030B5EFF3108172B6094A54680123002CA2
:10BFC00004D00370002900D162B630BD5360054B28
:10BFD0001D68054C254015601C6000220270F1E7C9
:10BFE000E821002080E100E0FC06FFBC08494A6827
:10BFF000002A0CD000280AD1EFF3108072B60A682C
:10C00000044B1A6000224A60002800D162B67047D3
:10C01000E821002000E100E010B5144C01210022CD
:10C0200009032068FFF7DEFE002801D0FFF770FE4D
:10C03000FF21002249316068FFF7D4FE002801D0BB
:10C04000FFF766FE00220A49A068FFF7CBFE002832
:10C0500001D0FFF75DFE00220649E068FFF7C2FE4F
:10C06000002801D0FFF754FE10BD00004CF0010085
:10C07000CD0C00006606000070B5284904460FC9C3
:10C0800096B00FAD0FC526486A4610870FA80EAEB2
:10C09000811E63DF1C216846FFF781F86A4610782D
:10C0A0000A2100250843691C0907090F08AA103155
:10C0B0000C951174691C0907090F10315174937C98
:10C0C000F9210B409B1C93740CAA0592102210437B
:10C0D0006A46107008AA0D95907D0840801C9075E6
:10C0E000112010755075142107A8FFF758F80DA8F6
:10C0F0000890142007966A461085908414A8149519
:10C100000B902346E088303307AA6946A2DF002857
:10C1100001D0FFF7FDFD002016B070BD5CF10100FD
:10C1200016AA000070B5294904460FC996B00FAD94
:10C130000FC527486A4610870FA80EAE811E63DF21
:10C140001C216846FFF72BF86A4610780221084345
:10C15000F72100250840691C0907090F08AA1031BA
:10C160000C951174691C0907090F10315174937CE7
:10C17000F9210B409B1C93740CAA059210221043CA
:10C180006A46107008AA0D95907D0840801C907535
:10C19000112010755075142107A8FFF700F80DA89D
:10C1A0000890142007966A461085908414A8149568
:10C1B0000B902346E088283307AA6946A2DF0028AF
:10C1C00001D0FFF7A5FD002016B070BD4CF10100B5
:10C1D00017AA0000F0B50546007D002493B00E4676
:10C1E00000280DD0012001466846103103940173E8
:10C1F000717B4173817BF92001406846891C817302
:10C200001C2104A8FEF7CBFF6946087C02210843E5
:10C21000694608742A7DEF21002A02D010221043BB
:10C2200000E008406A461074059407940894287D3D
:10C23000002800D003A8099001270A94104697719E
:10C24000304A82800094B27B0270F27B4270807828
:10C25000F9221040F722801C1040EF2108404108CD
:10C26000490068468170317B017214210BA8FEF7EA
:10C2700096FF01A80B9068460C908786C4860787B6
:10C2800002A80F90A888AB1D0BAA04A9A2DF002862
:10C2900035D1B068002830D0684687711A4981804E
:10C2A0000094317C0170002001466846417080781E
:10C2B000F9210840F721801C0840EF21084041087F
:10C2C00049006846817011A8B16800F0BFFC0646BD
:10C2D00014210BA8FEF763FF01A80B9068460C9091
:10C2E0008686C486068711A80F902A46E8880E32F3
:10C2F0000BA9A3DF002802D100E0EC81002013B0DD
:10C30000F0BD0000192A000008290000F0B50C4615
:10C3100093B01F216A4611800726002791800028CC
:10C3200009D0C17849070DD502A9FFF7B9FB00284C
:10C3300009D102AD01E000251780002C0ED0E07875
:10C34000002802D0304613B0F0BD01AA0AA9204649
:10C35000FFF7A6FB0028F6D10AAA02E068460022F1
:10C36000878068468088C3B268460088C1B2284684
:10C3700072DFE8E770B50D4604991646040042D016
:10C38000002E40D0424800224271C3600161242245
:10C3900031464048FEF7EAFE00F0BCF83D49343132
:10C3A0000846103801602031816038215C38FEF782
:10C3B000F6FE3848217838380170A1788170E1782C
:10C3C000C170617841706269216942610161E2680E
:10C3D000A168C26081600146E369A269CB618A619C
:10C3E000616A002919D00146AC310246B832416277
:10C3F0008A60636A1B880B80616A436A89889980B6
:10C400000021436A06E00E2070BD666AB668765C5D
:10C410005654491C9E888E42F7D8A16A00291CD028
:10C420001C4AAC3211460C398A608162A36A9B882F
:10C430008B80A16A836A098819800021836A04E0DD
:10C44000A66AB668765C5654491C9E888E42F7D818
:10C450002C210A5D0F4918390A73216A002909D075
:10C460000B4914310162226A52884A80216A026AA9
:10C47000098811806168002904D00549891D41603F
:10C4800061684160034829463838FFF73FFF70BDB7
:10C49000542100202827002010B502881C4C102AA7
:10C4A00017D00021112A1AD01B2A11D1007A002896
:10C4B0000ED1607901281ED0022822D0032822D074
:10C4C000042805D12171E2680846002A00D090476F
:10C4D00010BD817D0129FBD18088208110BD617054
:10C4E000808821898842F9D1012005E0216900294D
:10C4F000F4D0884710BD022000F014F80028F5D1D0
:10C5000010BD0320F8E7032020710420F4E70000A9
:10C510005421002010B507210148FEF740FE10BD50
:10C520006C210020F0B5784C87B06071002606A819
:10C53000069601F069FD0127082802D0002808D1DD
:10C5400004E006A800F0E4FD002804D106980028C5
:10C5500001D02770D4E0FFF7DDFF6C4D687800282C
:10C5600002D06079012807D0A87800280CD0607923
:10C57000012801D0022824D1E168002903D0E77006
:10C580000820884700E0E6706079012808D16878C3
:10C59000002809D05C48193001F007FD002803D0BD
:10C5A0006079022802D00CE002206071A87800288F
:10C5B00005D05548193001F0F8FC002801D10320BE
:10C5C0006071287B002804D16079032801D1042000
:10C5D0006071287E002804D16079042801D1667139
:10C5E0002671E16800290AD06079032801D0042867
:10C5F00005D12878002802D06078002817D0A670CE
:10C6000018216846FEF7CBFD684606700196067253
:10C610000396607901280ED0022815D03B4E2436AF
:10C6200037465C3F03281BD004285DD13AE0A77051
:10C6300007208847E4E734481830019068460770BF
:10C6400046820682277152E02F48183001906846D2
:10C65000077029894182A98801820220207146E061
:10C66000A88A69464882288A08822848243002F02D
:10C670002FFC002805D02878002802D060780028F8
:10C6800001D003202FE0022069460872042003969F
:10C69000F8701E4800213838FFF738FE002830D1E6
:10C6A000052020E0A88B69460882288C488217481C
:10C6B000243002F00DFC002805D02878002802D094
:10C6C0006078002801D004200DE00220694608723D
:10C6D00004200396F8700D4800213838FFF716FE45
:10C6E00000280ED1062020716079002803D068460A
:10C6F00073DF002805D1E168002901D0207988473F
:10C70000002007B0F0BD00005421002028270020A1
:10C7100038B50D4604001AD0002D18D028682060C6
:10C720000020C043608228792075FF2020740121F9
:10C730006846817007490180221D69460120A0DFFB
:10C74000002803D129462046FFF744FD38BD0E20BE
:10C7500038BD00000F18000038B5002824D000298B
:10C7600022D00A88102A1AD0112A1AD0502A1BD196
:10C77000027D002A18D0CA884389891D9A4213D1A4
:10C780004A89022A10D10268002A0DD04B7B0C7B0B
:10C7900019022143C907C90F07D0002106E0898883
:10C7A00001E00021C943418238BD01216B46197067
:10C7B0006946904738BD000070B5054601461C2209
:10C7C0000E48FEF7D3FC0E4C00262670296800297F
:10C7D00006D00822201DFEF7C9FC201D7ADF02E0EA
:10C7E0000748001D7BDF002807D1401E608066706F
:10C7F000044A00210448FFF797FA70BD142800206E
:10C800007421002015ED010008F10100F8B5214C5C
:10C81000028800271E4DE689102A15D01E49112ACC
:10C8200021D0122A2DD0502A1CD1C288801DB2429C
:10C8300018D14289022A15D1427B037B100218438A
:10C84000C007C00F0CD112E08188698001461048F2
:10C85000082218310C30FEF789FC6F70002E01D1D0
:10C8600000F0BAFBF8BD0020C04368806F70086814
:10C87000FFF7F6FA0028F5D0A1690029F2D0884721
:10C88000F8BD0822811802480C30FEF76FFCE7E77C
:10C89000742100201428002008F101007CB5054611
:10C8A00008880C460930904201D90C207CBD6846AE
:10C8B00071DF0028FAD121880820685420881B21C4
:10C8C000401C80B220802954208800A9401C80B2DE
:10C8D0002080401906220131FEF748FC2088694675
:10C8E000801D80B220800978002900D001212954C0
:10C8F0002088401C208000207CBD000010B504462C
:10C90000FFF784FF21460948FFF726FF0748214625
:10C91000183000F037F9204601F0D6FA2046FFF72C
:10C92000BBFD204600F0D0F910BD0000B42500206A
:10C930008AB00B786A4613704B7853708B7893707B
:10C94000CB78D3700B7913714B7953718B799371C9
:10C95000CB79D3710B7A13724B7A53728B7A9372B1
:10C96000CB7AD3720B7B13734B7B53738B7B937399
:10C97000CB7BD3730B7C13744B7C53748B7C937481
:10C98000C97CD174034640331989104A91421BD0A7
:10C9900014216A469184002105910691079108911E
:10C9A000008E908201209075118309A8089207904B
:10C9B000188905A9A6DF002804D16946898C1429A5
:10C9C00000D00C200AB070470820FBE7FFFF0000F2
:10C9D00088B00B786A4613754B7853758B789375CE
:10C9E000CB78D3750B7913764B7953768B79937615
:10C9F000C979D176024640321189104B99421BD039
:10CA0000082369460B800023019302930393049348
:10CA1000008D8880012088710B8105A80391049006
:10CA2000108901A9A6DF002804D1694609880829D0
:10CA300000D00C2008B070470820FBE7FFFF000083
:10CA400030B50D460446002185B0C9434030018110
:10CA50002968E16469682165A9686165E968A1657B
:10CA600000212D4B81720FCB03936B4607C32B48DC
:10CA7000694608821231684663DF002801D0FFF75B
:10CA800047F9A21D04A90120A0DF002801D0FFF76B
:10CA90003FF92946204602F07BFA002801D0FFF733
:10CAA00037F92946204602F01BFA002801D0FFF78B
:10CAB0002FF92946204601F053F8002801D0FFF74E
:10CAC00027F92946204600F0F5FF002801D0FFF79E
:10CAD0001FF929462046FFF725FB002801D0FFF764
:10CAE00017F929462046FFF7C7FA002801D0FFF7BB
:10CAF0000FF92946204600F075FD002801D0FFF708
:10CB000007F92946204600F017FD002801D0FFF75D
:10CB1000FFF805B030BD00008CF1010011AA000043
:10CB200086B00B786A4613754B7853758B7893757E
:10CB3000C978D175014640310A460989104B99429E
:10CB40001BD0042369460B800023019302930393B7
:10CB50000493008F8880012088710B8105A80391C0
:10CB60000490108901A9A6DF002804D1694609882C
:10CB7000042900D00C2006B070470820FBE7000015
:10CB8000FFFF000010B500280CD000290AD00B8848
:10CB900002464032102B06D0112B06D0502B01D16B
:10CBA00001F0C8F910BD888801E00020C043108161
:10CBB00010BD000030B58BB00D786C4625704D78F7
:10CBC00065708D78A570CD78E5700D7925714979FE
:10CBD00061711178A1715178E17191782172D178E8
:10CBE00061721179A1725179E172197821735978C2
:10CBF00061739978A173D978E1731979217459799E
:10CC00006174014640310A890F4B9A421AD01223AF
:10CC1000A384002305930693079308930089A082B9
:10CC20000120A075238309A808940790088905A905
:10CC3000A6DF002804D16946898C122900D00C2077
:10CC40000BB030BD0820FBE7FFFF00000A78027040
:10CC5000497841700220704700B5174887B00069D5
:10CC6000059000234822154905A801F029FC002859
:10CC700001D0FFF74DF86A460121002001F006FCC3
:10CC8000002801D0FFF744F80D4801F0AFFA002862
:10CC900001D0FFF73DF8684601F0EEFB002801D017
:10CCA000FFF736F8074801F0DDFB002801D0FFF759
:10CCB0002FF807B000BD00004CF00100B0220020AA
:10CCC000E81F0020FDC8010010B51C4C01886068F9
:10CCD00010290DD011290AD1401E606007D1FEF73E
:10CCE000EAFF002803D02168002900D0884710BD42
:10CCF00000281ED100210122084600F067F8002814
:10CD000001D0072811D107220221012000F05EF88E
:10CD1000002801D0072808D104220221002000F0B9
:10CD200055F8002805D0072803D02168002900D035
:10CD300088476068401C606010BD00004C210020E6
:10CD400010B5032000F05EF8002801D0062800D1BD
:10CD5000002010BDF8B507461A480068B84213D144
:10CD60001848194D0C38EE1E002921D02A46527859
:10CD700001290AD0022907D11446002C04D0716978
:10CD8000002901D020468847F8BD2C78002A0AD017
:10CD9000B1680A2251430C4A8068921EFFF722F8BC
:10CDA000002800D177700848A978401E0170E4E798
:10CDB0008068FFF755F80448AC78401E0078A04220
:10CDC000DBD0F8BDFCF00100372100200346002035
:10CDD000002B0BD10A4B012A02D1012908D00022D5
:10CDE00000290AD0012904D0022904D00720704765
:10CDF0000D221A7070475A7070479A707047000081
:10CE000037210020084909688A000849521811682A
:10CE1000C007C00F00D0032003231B049943000464
:10CE20000843106000207047FCF00100000700502C
:10CE300030B51348006900240007C30F1148002BC8
:10CE40004372057B817AC27A06D0491E04290ED826
:10CE50008472521CC27230BD491CC9B28172047303
:10CE60003C29F8D3002AF6D10521C17030BD6D1CD4
:10CE7000E9B201730429F9D3C4728472047330BD1A
:10CE80000005005080200020024909182020085683
:10CE9000704700003028002070477047704700003E
:10CEA000F8B52348C16800293ED00E6821494C6876
:10CEB0000769C078E11B0D022D0AED1C002814D172
:10CEC00001201D4A000450601B4A403A50601B4933
:10CED000400008601A4908601A49012008602F20A4
:10CEE000FEF718F912490120C870B54200D2354644
:10CEF000E81900020F4B000A403318600D4A5168D0
:10CF0000001B091B0902090A0002000AC91C814210
:10CF100009D9506818602F20FEF7FCF80120074956
:10CF2000400480390860F8BD01F014F9F8BD000034
:10CF3000AC210020001501404013014080E200E0D8
:10CF400000E100E000100140F8B5064610881446E4
:10CF50008446801D0D46984201D90C20F8BD3288C8
:10CF60000720062AFAD31927FF01184BBA4201D924
:10CF70009A42F3D171880629F0D3B94201D9994276
:10CF8000ECD19A4203D0994201D08A42E6D80521D9
:10CF90006046295420881221401C80B220802954E8
:10CFA0002088401C80B220804119308801F0ACFEFE
:10CFB0002188401880B220804119708801F0A4FEB9
:10CFC0002188401820800020F8BD0000FFFF0000ED
:10CFD00010B5FEF79DFE10BDF8B5164800F050FAEA
:10CFE000144D00260C3D144C002807D0616900291F
:10CFF0001CD001206A461070684616E02878002888
:10D0000005D06169002911D0684606700DE0687886
:10D0100000280DD0A168094800220068FEF7E2FE52
:10D02000002803D0A169002900D088472E70F8BDE0
:10D030006168F0E7802100201428002008F1010039
:10D0400010B5104CE07900280BD0102805D8092025
:10D0500000F0FAFE082000F0F7FEE079112802D077
:10D0600007E001200CE0092000F0F6FE082000F0A7
:10D07000F3FEE079112801D90020E071C0B2401C14
:10D08000E07110BD8020002010B5104CA079002860
:10D090000DD0401CC0B2A071C1070BD00A2809D81E
:10D0A000092000F0D1FE082000F0D6FE05E00120A6
:10D0B000A07110BD082000F0C7FEA0790A28F8D999
:10D0C0000020A0710420E07010BD0000802000202E
:10D0D00010B50E4900234A788C78A24212D0521C17
:10D0E000D2B24A70022A00D14B704A78074B9200A4
:10D0F00018339A580260086910180002000A086183
:10D10000012010BD0360002010BD0000AC210020F4
:10D11000002804D00349496D0160002070470320B6
:10D1200070470000AC2900201CB5002401220094A7
:10D13000234611460820019400F064FE082000F008
:10D1400083FE01220094002311460920019400F07F
:10D1500059FE092000F078FE032000220346114604
:10D160000094019000F04EFE01220094002311462D
:10D170000E20019400F046FEFA2000F099FD0E20EA
:10D1800000F062FE0A2000F093FD0E2000F064FE25
:10D190000A2000F08DFD0E2000F056FE1CBD0000A0
:10D1A00010B50020144C02E00B5C2354401C90424C
:10D1B000FAD320781149002804D0012802D002288F
:10D1C00002D006E0487010BD0D4908468638FFF7CA
:10D1D000AFFB2078032805D10949143108469A3855
:10D1E000FFF7A6FB20780428EDD105492831084631
:10D1F000AE38FFF79DFB10BD9C2200208020002050
:10D200005226002070470000F8B50020274B02E0AE
:10D210000C5C1C54401C9042FAD31878FF2844D16F
:10D22000234E308AFEF758F9224A234BFEF774F852
:10D230000022224BFEF7D8F8F16604460D46204A3C
:10D24000204BB066FDF7B6FFF165B065074600916B
:10D250001B4A1C4B20462946FEF750F87166306683
:10D2600004460D463A4600201749009BFEF746F853
:10D27000164F02460B4600203946FEF7B5F8F1631B
:10D280000022134BB063FEF747F8F164B0642946FF
:10D29000F80341400B46224600203946FEF7A4F829
:10D2A00071643064002030657065F8BD882200200C
:10D2B00080200020CDCCCCCCCCCC0C4000E06F400A
:10D2C0009A9999999999993F00000840000059C08E
:10D2D000000008C010B50020074B02E00C5C1C5495
:10D2E000401C9042FAD319780448002901D0012942
:10D2F00000D1017010BD00007422002080200020A9
:10D3000010B5092000F0A0FD082000F09DFD10BD23
:10D3100070470000F8B51C4C2078002833D02069F5
:10D32000002807D00026E068002805D00025002E40
:10D3300004D011E00126F6E70125F8E7684652DF40
:10D34000052804D0002804D0FEF7E2FC04E0012602
:10D3500002E0216900988847002D10D16088694655
:10D360000880A06861DF052804D0002804D0FEF7FB
:10D37000CFFC04E0012502E0E168A0688847002EA8
:10D38000DCD0002DD3D0F8BDD4210020887200203D
:10D3900048727047F7B50025164604462F4616E03A
:10D3A000A80001210904A940FF3041302258002A79
:10D3B0000BD003221202A21852680A4205D027504D
:10D3C000019A01991268496890476D1CEDB2B54207
:10D3D000E6D3FEBD7FB50C460D462035064669787E
:10D3E00028780191009022462632D11E3046E3690A
:10D3F00001F0C1FA002819D1E87800281DD1207B5E
:10D40000022801D0032818D12269E169914214D180
:10D410006269E261E37B2B70217E8906C90F697026
:10D42000032804D03146204601F048FA7FBD009120
:10D430003146204601F022FB7FBD20460C3007C854
:10D4400001AB07C3E878002100280ED00920C001F5
:10D450003218506C5064820701D5012002E0400769
:10D4600005D502206A46107001E0684601702971F6
:10D47000207E4007E0D422686846616890477FBDFF
:10D48000418805480288914204D34088814201D8EE
:10D490000120704700207047782100201048018C3F
:10D4A000C9B2012917D1818C090714D1018D090650
:10D4B0000A0F03D1828D1206120F0ED0090F012917
:10D4C00003D1828D1206120F07D0032903D1808D5C
:10D4D0000006000F01D000207047012070470000B7
:10D4E000C00F00F030B51588EC1C9C4201D90C200F
:10D4F00030BD02244C5513881C255B1C9BB2138045
:10D50000CD5413885B1C9BB21380012807D00228DE
:10D5100007D0032807D0042807D0072030BD0020FB
:10D5200004E0012002E0CC5401E00320C85410883C
:10D53000401C1080002030BD70B5284904460FC93A
:10D5400096B00FAD0FC526486A4610870FA80EAEDD
:10D55000811E63DF1C216846FDF721FE6A461078B4
:10D560000A2100250843691C0907090F08AA103180
:10D570000C951174691C0907090F10315174937CC3
:10D58000F9210B409B1C93740CAA059210221043A6
:10D590006A46107008AA0D95907D0840801C907511
:10D5A000112010755075142107A8FDF7F8FD0DA87E
:10D5B0000890142007966A461085908414A8149544
:10D5C0000B902346E088403307AA6946A2DF002873
:10D5D00001D0FEF79DFB002016B070BD7CF101006C
:10D5E00018AA000070B5294904460FC996B00FADBE
:10D5F0000FC527486A4610870FA80EAE811E63DF4D
:10D600001C216846FDF7CBFD6A46107802210843CD
:10D61000F72100250840691C0907090F08AA1031E5
:10D620000C951174691C0907090F10315174937C12
:10D63000F9210B409B1C93740CAA059210221043F5
:10D640006A46107008AA0D95907D0840801C907560
:10D65000112010755075142107A8FDF7A0FD0DA825
:10D660000890142007966A461085908414A8149593
:10D670000B902346E088383307AA6946A2DF0028CA
:10D6800001D0FEF745FB002016B070BD6CF1010023
:10D6900019AA0000F8B52C49C8680A690C780F79F6
:10D6A00089688646944600913EE00099E20055184C
:10D6B0002A7836E0182353436968521CC918AB789E
:10D6C000D2B2934200D100220B78022B02D0032B5E
:10D6D00027D123E04E680346014603E0B14204D05F
:10D6E0000B46C96900291CD0F8E7002919D08B42E4
:10D6F00008D1C069002805D1144F0126BE6000265C
:10D70000B44601270E68C969D961002909D00B68A0
:10D710009B190B6005E00174C06900E0002100283E
:10D72000F9D169789142C5D12146641EE4B200293D
:10D73000BBD1054962460A61C8600F71704501D0CE
:10D740000120F8BD0020F8BDAC21002000100140F0
:10D75000F8B5044631480026C168009107784EE0CC
:10D760002E48F90080680D1843E0002C02D02046B6
:10D77000E4691FE02878182141436A68401CC0B260
:10D7800051182870AA78904200D12E700A78486803
:10D79000012A30D1027C002A2DD18A684260CA68F1
:10D7A00082600A69C260496981611C49097900295E
:10D7B00000D04660194943680A699C46991A0902D3
:10D7C000174B090A994202D28268891807E061461C
:10D7D000511A09028268090A8A4202D9511A016063
:10D7E00000E006604660012186600174C66100F0B9
:10D7F0005FFF002CB9D1287869788842BAD13846C1
:10D800007F1EFFB20028ABD10448C1680098814256
:10D8100001D00120F8BD0020F8BD0000AC2100209F
:10D82000FFFF7F0070470000714DA6B06F49E966A9
:10D830006D48A8666F49E9650020A8656F4969666B
:10D840006D4828666F49E9636D48A8636F49E964CC
:10D850006D48A8646F4969646D4828640020286594
:10D86000686514216C48FDF79AFC6B48142114304C
:10D87000FDF795FC684814212830FDF790FC6748B7
:10D880000FC803936B4607C3634B2846BA3B062277
:10D8900069467030FEF70EFB002801D0FEF738FA1B
:10D8A000FEF7B0F85248002302225D497030FEF7BF
:10D8B0001BFB4F48002301225A497030FEF714FB2E
:10D8C0004B480023022258497030FEF70DFBC82058
:10D8D00000F0EEF946480023012254497030FEF76B
:10D8E00003FB4E49424810397030FEF733FB0028E5
:10D8F00001D0FEF70DFA00F03BFFFFF715FCFFF734
:10D90000ABF91120694608720C2249A102A87CDFFC
:10D91000002801D0FEF7FCF900240094102168468D
:10D92000019401803C214180FF2184809131C1809C
:10D930007ADF002801D0FEF7EBF900F03DFD382139
:10D9400001A8FDF72CFC02216846017184710521B4
:10D95000C17138210FA8FDF722FC012610A886818D
:10D9600023482421123014901DA8FDF718FC20A88C
:10D97000067040202190B4202290314B1DAA0FA99F
:10D98000009401A8FEF7F6FC002801D0FEF7C0F9CC
:10D990001C216846FDF703FC0520C00301900F2001
:10D9A000000402900094032168460173C48104744A
:10D9B00024480590244806906846FEF7FDFE00289E
:10D9C00001D0FEF7A5F90320FEF7ACFD0221E970B6
:10D9D000002801D0FEF79CF9FEF71EFB48DF002867
:10D9E000FCD0FEF795F9F9E79A9999999999F93F39
:10D9F000802000200000FA3F343333333333F93FC3
:10DA00002FBAE8A28B2E52C046175D74D1456B40E9
:10DA1000EFFBBEEFFBBE4F405226002080F001001E
:10DA2000ECF10100CCF10100D4F1010000F20100A1
:10DA3000506F636B6574204C6162203200000000FF
:10DA4000B1DE010015DF0100D1CF010070B5144631
:10DA500082880E4605462088111D4118921C994265
:10DA600001D8FE2A01D90C2070BD521C32542088E6
:10DA7000FF21401C80B2208031542088401C80B29D
:10DA800020808119288801F03FF92188401880B250
:10DA90002080AA88002A09D0A968002908D0801906
:10DAA000FDF764FB2088A98840182080002070BD05
:10DAB000072070BD70B5284904460FC996B00FAD58
:10DAC0000FC526486A4610870FA80EAE811E63DF79
:10DAD0001C216846FDF763FB6A4610780A21002581
:10DAE0000843691C0907090F08AA10310C95117425
:10DAF000691C0907090F10315174937CF9210B40FF
:10DB00009B1C93740CAA0592102210436A46107055
:10DB100008AA0D95907D0840801C90751120107505
:10DB20005075142107A8FDF73AFB0DA808901420A2
:10DB300007966A461085908414A814950B90234686
:10DB4000E088203307AA6946A2DF002801D0FEF74B
:10DB5000DFF8002016B070BD3CF1010012AA0000F1
:10DB600070B5294904460FC996B00FAD0FC52748B7
:10DB70006A4610870FA80EAE811E63DF1C2168461F
:10DB8000FDF70DFB6A46107802210843F7210025B6
:10DB90000840691C0907090F08AA10310C95117477
:10DBA000691C0907090F10315174937CF9210B404E
:10DBB0009B1C93740CAA0592102210436A461070A5
:10DBC00008AA0D95907D0840801C90751120107555
:10DBD0005075142107A8FDF7E2FA0DA8089014204B
:10DBE00007966A461085908414A814950B902346D6
:10DBF000E088183307AA6946A2DF002801D0FEF7A3
:10DC000087F8002016B070BD2CF1010013AA0000A7
:10DC1000F8B50F46017814460546012902D1687807
:10DC2000002806D02088821C9A422DD8012902D0D3
:10DC300006E00720F8BD69784118891C994223D86D
:10DC4000181A801E86B2684606802188B81C0818FB
:10DC500069467DDF0028EDD12878022805D1694684
:10DC60000988B14201D809210AE00821012805D11B
:10DC70006878B04202D86A46108001E068460680A3
:10DC800068460088FE2801D90C20F8BD2288401C77
:10DC9000B8542088401C80B22080395420886946BE
:10DCA000401C20800988401820800020F8BD00001A
:10DCB00031B5054C04E0401E00902046FDF70AFAFD
:10DCC00000980028F7D138BDE70300008207D30E83
:10DCD000FF229A408907090E10B5994000280BDAF7
:10DCE00003071B0F083B9C080C4BA400E318DC69DE
:10DCF00094430C43DC6107E08408094BA400E4185A
:10DD0000236893430B432360C106C90E012088405A
:10DD1000044908600449086010BD000000ED00E0FF
:10DD200000E400E080E200E000E100E00179282268
:10DD30005143054A0068891805221302C018026081
:10DD4000022020318870704784290020F8B50746EA
:10DD50000C46007928211D4D41434D192E46203691
:10DD6000B178002901D00820F8BD002C02D1184953
:10DD7000000144180CC500202860707130712146E4
:10DD80003846083D00F030FD2068124982001248F4
:10DD9000121811606268920010180160052338683B
:10DDA0001B0206CCC0188160C260216841622868ED
:10DDB000083C002805D03868217B000B40B2FFF7F3
:10DDC00085FF0120B0700020F8BD000084290020EC
:10DDD0009CF101000C0600000007005070B50D46D4
:10DDE000017928235943064BCC18910701D006200E
:10DDF00070BD134601682A46204600F085FE70BDBE
:10DE00008429002030B552000A439900039C0A433C
:10DE10002102049D0A4329040A4302498000401854
:10DE2000026030BD000700508200064810180268EA
:10DE300003231B049A430260026809040A43026038
:10DE40007047000000070050012181400148C16077
:10DE500070470000000500500121814001488160A9
:10DE60007047000000050050012181400148816099
:10DE70007047000000050050034940180068012861
:10DE800000D000207047000000600040405800288B
:10DE900000D0012070474058002800D00120704772
:10DEA0000322120280184068084000D00120704709
:10DEB0000449002803D0032803D1022000E00520F4
:10DEC000C87070478020002010B502881049102AC1
:10DED00010D0112A12D00846C089132A13D0522A12
:10DEE00007D100231A461946A9DF002801D0FDF703
:10DEF0000FFF10BD0322CA70808802E00220C870A4
:10DF0000C01EC88110BD00231A4685217FDFECE7C3
:10DF10008020002010B50078002807D104483B215C
:10DF2000C08976DF002801D0FDF7F2FE10BD0000A9
:10DF300080200020F8B58B1DCA88048A1231A242C5
:10DF400002D1C46C002C2BD1848900250126A24269
:10DF500010D1598902290CD10268002A09D0597BB5
:10DF60001B7B09021943C907C90F69461BD00D70F5
:10DF70009047F8BD048CA24202D1046D002C0FD151
:10DF8000048EA24202D1446D002C09D1848DA2429C
:10DF9000DFD04024245AA242EBD1846D002CE8D07B
:10DFA0005A89A047F8BD0E70E2E70021425C002AC2
:10DFB00001D001207047491C0629F7D30020704783
:10DFC00010B5104C207A002819D0401C207209206E
:10DFD000FFF742FF0820FFF737FF207A1E280DD3F6
:10DFE000002020720920FFF72FFF0820FFF72CFFE9
:10DFF0000E20FFF729FFFEF7A3FE3CDF10BD012036
:10E00000207210BD8020002007490979490701D4FA
:10E0100008207047002804D0044949780160002096
:10E0200070470E20704700008821002094280020AF
:10E030002348014602782A310A7042784A70827871
:10E040008A70C278CA7002790A7142794A718279FB
:10E0500014310A70C2794A70027A8A70427ACA70A0
:10E06000827A0A71C27A4A71027B8A71427BCA71D2
:10E07000827B0A72C27B4A72027C8A72427CCA72BA
:10E08000827C0A73C27C4A73027D8A73427DCA73A2
:10E09000827D0A74C27D4A74427E14310A70827E87
:10E0A0004A70C27E8A70027FCA70427F0A71827F84
:10E0B0004A71C07F8871084632380078C87170474D
:10E0C000282600202148224902780A7042784A70A6
:10E0D00082788A70C278CA7002790A7142794A716C
:10E0E0008279891D0A70C2794A70027A8A70427AEE
:10E0F000CA70827A0A71C27A4A71027B891D0A70DB
:10E10000427B4A70827B8A70C27BCA70027C0A7131
:10E11000427C4A71827C891D0A70C27C4A70027DF1
:10E120008A70427DCA70827D0A71C27D4A71027E08
:10E130008A71427ECA71827E16390A70C27E4A7026
:10E14000027F8A70407FC870704700002826002038
:10E150009A20002070B501240B49600408600B4927
:10E1600040108860094940398860094D6C602F2053
:10E17000FCF7D0FFAC60074D00242F202C61FCF78A
:10E18000C9FFEC7070BD000080E100E04013014069
:10E1900000100140AC21002030B50A48FF21C57DA8
:10E1A0000022094C0931094B002D625007D09969B2
:10E1B000437EC268D154417E491C417630BD986986
:10E1C00030BD0000782800200020004000250040DD
:10E1D0001FB501236A46137010720348019106C8E7
:10E1E000684690471FBD00007828002008B5024906
:10E1F0000020009108BD00008020002010B5012102
:10E20000202805DA1A4A8140114201D1194810BD6F
:10E210008107C90E002808DA0207120F083A92088F
:10E22000154B9200D218D26904E08208134B920079
:10E23000D2181268CA401106890F042911D2002988
:10E240000FD002290DD00E494C68C306DB0E012207
:10E250009A40002C08D0400980000B5813430B5003
:10E2600004E00448401C10BD06480260002010BDB8
:10E27000FC06FFBC0120000000ED00E000E400E02F
:10E28000E821002000E100E070B5104C0125207964
:10E29000002810D0401C2071C0070BD160790026E7
:10E2A00000280AD00820FFF7CFFD0920FFF7D4FD92
:10E2B0006671267170BD257170BD0920FFF7C4FD20
:10E2C0000820FFF7C9FD6571F3E7000080200020FA
:10E2D00010B512491248FDF73DFE002801D0FDF7A8
:10E2E00017FD0F4C703C2078002806D023462633BB
:10E2F0009A1F911F0B48FEF75DFC6078002804D040
:10E30000074908484439FEF763FBA078002804D089
:10E31000034904485A39FEF703FC10BD60F00100C0
:10E32000F0200020CC250020FFB50746806A81B090
:10E33000144600283DD0002538462030009033E0B8
:10E340000C20B96A68430E18B088801CFE2802D9D8
:10E350000C2005B0F0BD22880299401C885420880A
:10E360001622401C80B2208002990A542088401C4A
:10E3700080B2208002994118308800F0C5FC2188C5
:10E38000401880B22080B288002A0AD0B1680029E3
:10E390000FD0029BC018FCF7E9FE2088B188401816
:10E3A00020806D1C0098EDB2007BA842C8D80020E8
:10E3B000CFE70720CDE7000010B58CB0142105A8E9
:10E3C000FCF7EDFE1C4805901C4806901C48079081
:10E3D0001C48089005A91C48FEF732FB200001D01C
:10E3E000FDF796FC14216846FCF7D9FE0120014692
:10E3F000684610314173012001466846103181732F
:10E40000002001466846C17301200146684610316C
:10E4100001740021012200910271029164210173B3
:10E42000094869461838FEF773F9002801D0FDF74E
:10E430006FFC0CB010BD0000D5D2010009D2010064
:10E44000A1D1010005D20100CC2500200B46C168F6
:10E450000968002905D0C168C06849680268184683
:10E4600010477047002803D00249C8600020704759
:10E470000E207047D42100201CB503490191009162
:10E48000694660DF1CBD00008020002070B50E468C
:10E490000546144614211046FCF781FE0220208018
:10E4A00000202061207326726572002D01D00120AA
:10E4B000A072002070BD10B5FDF71CFC10BD00005F
:10E4C00070B5002901D08C0701D0072070BD074C22
:10E4D0000125A16062800649636010DF0028F5D144
:10E4E00025701620FFF78AFE70BD0000D4210020A1
:10E4F000B7E40100F8B50E460446002568460570ED
:10E50000FDF756FD002E02D1E068002822D1607987
:10E51000A179814201D1294609E021688200895808
:10E52000401C2279C0B2824200D200206071E160BA
:10E53000E06800280ED068460078FDF757FD257288
:10E54000204600F00CF8010008D02046FFF77EFFBF
:10E550000126D3E768460078FDF748FDF8BD3EB5D3
:10E56000037AC168DA0089686D4689184C796408B5
:10E570006C700C6801940C79AC708C79E4072AD02B
:10E580004C79E50727D1C5685B1C2D7B9D4222D9BC
:10E59000C36864089D6813460D33EB5C5B08A342B7
:10E5A00019D1C168083289686B4689180A680292D5
:10E5B0000A79DA704A79D20701D0022200E00322F8
:10E5C0001A708979C90701D0202200E00022017A5F
:10E5D000491C01720DE04A796B46D207D20F1A70BE
:10E5E00000220292DA708979C90701D0202200E066
:10E5F000002219461030FFF7F1FB3EBD03480349E6
:10E60000C078800088310858004700008020002032
:10E6100010B5FFF7F3FF10BD70470000FEB51F4CAB
:10E6200000252769E06802906846FEF751FD0190D9
:10E63000FFF730F806460198002822D00023009802
:10E64000E16817E00E680A46864202D9301A08606F
:10E6500012E0801BF31800261660D668D169B44614
:10E66000002E07D0FE183602360A566066469660BF
:10E67000D56115460029E5D12846E160FFF768F825
:10E6800006E02846FFF764F8002801D1002E02D0EA
:10E690000298FEF705FC00202071FEBDAC21002091
:10E6A00001200249000508607047000000E200E018
:10E6B00010B50E4BD968002906D002680C68A2423A
:10E6C00004D8A21A0A60C161D86010BD0B4604E0EC
:10E6D0000B46C969121B002904D00C689442F7D379
:10E6E000A41A0C600260C161D86110BDAC21002089
:10E6F000F8B51D4DEC68002C34D01C48002740684C
:10E700002969401A0602360A2068B04218D8361A1B
:10E71000C7192246107CE46900280FD0002010742D
:10E720006B69002B07D0916950699847002805D084
:10E73000FDF7EEFA02E0516990698847002CE3D1B9
:10E740006978A878814206D1401CC0B2A87002281E
:10E7500001D10020A87004490006800D18310F5027
:10E76000FFF79EFFF8BD0000AC210020001501401E
:10E7700010B50023164A08211846FDF7EBFA0028C9
:10E7800001D0FDF7C5FA134A01211348FDF7CCFA71
:10E79000002801D0FDF7BCFA0F48104A0121001DE6
:10E7A000FDF7C2FA002801D0FDF7B2FA0A480C4A78
:10E7B00001210830FDF7B8FA002801D0FDF7A8FACA
:10E7C0000548084A01210C30FDF7AEFA10BD0000E3
:10E7D000F8220020D1E201004CF0010081BA0100D2
:10E7E00011E6010031CE0100F8B50C460968224D52
:10E7F0008900204849190860616889004919086042
:10E800002068FFF731FB6068FFF72EFB194821688D
:10E81000401C89004919086061688900491908602D
:10E820000420FCF767FC0025144F01262079396984
:10E83000C140C807C00F02D0002D19D00FE02078CA
:10E8400031468140F9600420FCF754FC2068FFF752
:10E850000BFB0420FCF74EFC6D1C092DE6DB207938
:10E860008640FE600420FCF745FC6068FFF7FCFA78
:10E87000F8BD00000C060000000700500005005025
:10E8800010B500780C46002808D003212046FFF779
:10E89000DDFD01212046FFF72DFE10BD207A00216D
:10E8A000401CE268C0B2127B8242EFD9207220463F
:10E8B000FFF755FE0100E9D110BD0000FFB50027AC
:10E8C000FF2285B00C4605321E46A750FF22253296
:10E8D000A750FF221D32A750FF220932A75005463C
:10E8E0002035CA1DFF32AF71FA32EF70012B0FD005
:10E8F000012313600122226222600268002A09D0EB
:10E90000104981608068032109026118486015E0A0
:10E910000223EEE7014626312330039102900020C6
:10E92000019000962046079B039A029900F023F875
:10E930000028F4D1E878002800D00327384609B031
:10E94000F0BD00008602000030B51C78039D9442A3
:10E9500008D205221202095D8018C1611878401C96
:10E96000187006E00121002D02D0C161002030BDE9
:10E970004161012030BDFFB50F46097881B00446E2
:10E98000012904D0039802780A98824201D1012615
:10E9900000E00026FF2025300025002907D0255063
:10E9A000FF201D302550FF200930255056E0FF2163
:10E9B00025312046FFF76AFA00282CD1FF211D31AE
:10E9C0002046FFF763FA002814D0FF201D302550A1
:10E9D000FF2125312046FFF759FA00281BD10B985B
:10E9E00000902046039B0A9A0499FFF7ADFF002888
:10E9F00040D033E0FF2109312046FFF747FA0028D5
:10EA00002CD0FF2009302550FF2125312046FFF76B
:10EA10003DFA002806D0FF202530255001206061F6
:10EA200038701BE003990A980F78049ABC46874215
:10EA300014D205231B02E3189B696746D3550A7855
:10EA4000521CD2B20A70411E8A4203D10220010236
:10EA5000085101E0824201D001212162002E0BD039
:10EA6000FF26053631462046FFF710FA002803D06E
:10EA7000A551002005B0F0BD0120FBE7FFB505461C
:10EA800087B00C460020FF21109F05310590605093
:10EA9000FF2125316050FF211D316050FF210931D8
:10EAA0006050012149022E4608512036B071F070A5
:10EAB00001202062A060B31D0097029320460A9AAD
:10EAC0000999FFF741FF2868002807D00D48A86082
:10EAD000A868032109026118486010E023350A98EC
:10EAE0000090019729462046099B029AFFF743FFB1
:10EAF0000028F4D1F078002801D003200590059873
:10EB00000BB0F0BD86020000F8B5044600250320D6
:10EB1000ED43000208188560254620352E79002E29
:10EB200003D0A16841601120F8BD5807C017401CF0
:10EB30002871180701D50620F8BDA361C1CA0C349D
:10EB4000C1C40C3A9078287050680B266060F601BA
:10EB500050788E19B06010780026183C01280ED02D
:10EB6000002801D1980601D5012000E0002068703E
:10EB70000090937852682046FFF780FF05E06E70A2
:10EB8000937852682046FFF799FE21680029D3D177
:10EB90002E71F8BDFF2107481D3100224250064862
:10EBA000828A8168895C828A521C82820348C161A0
:10EBB0007047000000200040782800200025004019
:10EBC0001FB500216A4611701072044882680192D4
:10EBD000817506C8684690471FBD00007828002050
:10EBE000F0B5454D012185B049022846FFF758F997
:10EBF00001270026414C002824D0FF21253128463A
:10EC0000FFF749F900281DD0FF2025302E50812024
:10EC10003B4980008860A07E002800D16F600221FF
:10EC2000684601703749086808600390E17D6846CE
:10EC30000172E0680190E675267606CC6846083CCD
:10EC400090472BE004212846FFF72AF9002825D019
:10EC5000FF2109312846FFF71EF900281ED0FFF7D3
:10EC60009BFAE07D617E884218D1207E002808D082
:10EC7000627EE168E0752069E0602676667610467F
:10EC80000AE0A07E002800D16F6081201C4980002E
:10EC90008860E675607EE168FFF79AFAFF211D3112
:10ECA0002846FFF7F8F800280DD0A18AA07D814200
:10ECB00002D2FFF76FFF06E0FF211D316E500028E2
:10ECC00001D0FFF77DFFFF2145312846FFF7E3F82C
:10ECD00000280ED0FF2045302E50A07E002800D006
:10ECE0002F60E07D002804D0E675607EE168FFF7C4
:10ECF0006FFA05B0F0BD0000002000407828002029
:10ED000000230040802400400870000A4870022060
:10ED10007047000038B51549154A488890420FD011
:10ED20004A78144C521CD2B24A70237B934208D3C7
:10ED3000091D75DF002803D0A169002900D088478C
:10ED400038BD00254D70217C002907D03B2176DF9E
:10ED5000002803D0A169002900D0884761690029F3
:10ED6000EED068460570884738BD00007421002049
:10ED7000FFFF000014280020EFF30580C005C00D40
:10ED80001AD0103840B2002808DA0107090F0839F4
:10ED900089080C4A89008918C96904E081080A4A6F
:10EDA0008900891809688007C00EC1400806800FD5
:10EDB000012803D0032803D00220704700207047A9
:10EDC0000120704700ED00E000E400E04278837825
:10EDD000521CD2B2934200D100220378934201D157
:10EDE000002070470A704168407818225043081884
:10EDF0007047FFB583B016460C9D0D9C1F4602223E
:10EE000000950194039800F00CF8002807D13B46C8
:10EE10001022314600950194039800F002F807B0E3
:10EE2000F0BDFFB583B0074600200C9C86462688BF
:10EE300005463AE07868A900421811886846818042
:10EE40005188C1800022694601A865DF002839D1B8
:10EE5000684601780598814226D17046002801D085
:10EE6000002200E002222088891842180D998A4267
:10EE700027D8714600290AD1401C80B22080069A0A
:10EE8000049911542088401C208001208646218846
:10EE900006980A18694601A865DF002812D169465C
:10EEA00020880978401820806D1C3888A842C1DC71
:10EEB000704600280AD02088801B401E80B2FF28A0
:10EEC00002D90C2007B0F0BD069988550020F9E75B
:10EED0000179002902D1007B002800D00120704771
:10EEE00070B5294904460FC996B010AD0FC5274823
:10EEF0006A46108710A80EAE811F63DF1C2168468A
:10EF0000FCF74DF96A4610780A2100250843691C70
:10EF10000907090F08AA10310C951174691C09071B
:10EF2000090F10315174937CF9210B409B1C937491
:10EF30000CAA0592102210436A46107008AA0D957B
:10EF4000907D0840801C907511201075507514211B
:10EF500007A8FCF724F90DA80890142007966A4624
:10EF60001085908408AA15770FA80B902346E08897
:10EF7000103307AA6946A2DF002801D0FCF7C8FEBB
:10EF8000002016B070BD00001CF1010014AA0000A2
:10EF900070B52B4904460FC996B00FAD0FC529486F
:10EFA0006A4610870FA80EAD811E63DF1C216846DC
:10EFB000FCF7F5F86A46107802210843F72108406B
:10EFC00000214A1C13071B0F08AA10330C9113745D
:10EFD0004A1C13071B0F08AA10335374967CF9239D
:10EFE0001E40B61C96740CAA0592102210436A4665
:10EFF000107008AA0D91907D14211840801C907506
:10F0000011201075507507A8FCF7C9F80DA80890D5
:10F01000142007956A46108590840BA00068149010
:10F0200014A80B902346E088083307AA6946A2DF9C
:10F03000002801D0FCF76CFE002016B070BD000067
:10F040000CF1010015AA000000010203F4210020C8
:10F050001422002034220020542200200100000746
:10F06000C5E001000000000090F001000800000071
:10F0700031E0010000000000D0F0010004000000B9
:10F080000F000000100000000000680603000000F0
:10F09000C8F1010001D001002826002006D100009F
:10F0A000C9F1010001D001002E26002006D1000088
:10F0B000E4F1010001EC01003A26002008ED000017
:10F0C000FCF101000152010042260020045300001F
:10F0D000E5F1010001EC0100282600201AED0000F6
:10F0E000E6F1010001EC01004226002007ED0000DE
:10F0F00090260020B0260020D0260020030000002B
:10F100000300030055CD0100F4270020000000009B
:10F11000000000B000405104000000F000000000BA
:10F12000000000B000405104000000F000000000AA
:10F13000000000B000405104000000F0000000009A
:10F14000000000B000405104000000F0000000008A
:10F15000000000B000405104000000F0000000007A
:10F16000000000B000405104000000F0000000006A
:10F17000000000B000405104000000F0000000005A
:10F18000000000B000405104000000F0000000004A
:10F19000000000B000405104000000F0000000003A
:10F1A00001000000000098010300000001000000C1
:10F1B00000000000000000008DD3010000000000EE
:10F1C00000000000000000003B430000CE210020B2
:10F1D00002D00000D021002002D00000CC2100206D
:10F1E00002D00000F788E1F427F20100E9F1010004
:10F1F00002EC0000E7F1010002EC00008880010051
:10F20000FDF101000252000028F2010080200020E0
:10F21000740100003EB6010070F20100F4210020EC
:10F2200014100000C6B90100B401010123FFFF045E
:10F230006C11AA02123042401401D3011A11041BAE
:10F2400089E20413D0011A410414C1DF011425D846
:10F25000011419E601149DCE011A9B041A990401A8
:10F260002829CE016C071F6A016B0137021324F4B1
:040000050001B0C185
:00000001FF
